{
  "contractName": "RenewableEnergyToken",
  "abi": [
    {
      "inputs": [],
      "stateMutability": "nonpayable",
      "type": "constructor"
    },
    {
      "inputs": [
        {
          "internalType": "address",
          "name": "sender",
          "type": "address"
        },
        {
          "internalType": "uint256",
          "name": "tokenId",
          "type": "uint256"
        },
        {
          "internalType": "address",
          "name": "owner",
          "type": "address"
        }
      ],
      "name": "ERC721IncorrectOwner",
      "type": "error"
    },
    {
      "inputs": [
        {
          "internalType": "address",
          "name": "operator",
          "type": "address"
        },
        {
          "internalType": "uint256",
          "name": "tokenId",
          "type": "uint256"
        }
      ],
      "name": "ERC721InsufficientApproval",
      "type": "error"
    },
    {
      "inputs": [
        {
          "internalType": "address",
          "name": "approver",
          "type": "address"
        }
      ],
      "name": "ERC721InvalidApprover",
      "type": "error"
    },
    {
      "inputs": [
        {
          "internalType": "address",
          "name": "operator",
          "type": "address"
        }
      ],
      "name": "ERC721InvalidOperator",
      "type": "error"
    },
    {
      "inputs": [
        {
          "internalType": "address",
          "name": "owner",
          "type": "address"
        }
      ],
      "name": "ERC721InvalidOwner",
      "type": "error"
    },
    {
      "inputs": [
        {
          "internalType": "address",
          "name": "receiver",
          "type": "address"
        }
      ],
      "name": "ERC721InvalidReceiver",
      "type": "error"
    },
    {
      "inputs": [
        {
          "internalType": "address",
          "name": "sender",
          "type": "address"
        }
      ],
      "name": "ERC721InvalidSender",
      "type": "error"
    },
    {
      "inputs": [
        {
          "internalType": "uint256",
          "name": "tokenId",
          "type": "uint256"
        }
      ],
      "name": "ERC721NonexistentToken",
      "type": "error"
    },
    {
      "anonymous": false,
      "inputs": [
        {
          "indexed": true,
          "internalType": "address",
          "name": "owner",
          "type": "address"
        },
        {
          "indexed": true,
          "internalType": "address",
          "name": "approved",
          "type": "address"
        },
        {
          "indexed": true,
          "internalType": "uint256",
          "name": "tokenId",
          "type": "uint256"
        }
      ],
      "name": "Approval",
      "type": "event"
    },
    {
      "anonymous": false,
      "inputs": [
        {
          "indexed": true,
          "internalType": "address",
          "name": "owner",
          "type": "address"
        },
        {
          "indexed": true,
          "internalType": "address",
          "name": "operator",
          "type": "address"
        },
        {
          "indexed": false,
          "internalType": "bool",
          "name": "approved",
          "type": "bool"
        }
      ],
      "name": "ApprovalForAll",
      "type": "event"
    },
    {
      "anonymous": false,
      "inputs": [
        {
          "indexed": true,
          "internalType": "address",
          "name": "from",
          "type": "address"
        },
        {
          "indexed": true,
          "internalType": "address",
          "name": "to",
          "type": "address"
        },
        {
          "indexed": true,
          "internalType": "uint256",
          "name": "tokenId",
          "type": "uint256"
        }
      ],
      "name": "Transfer",
      "type": "event"
    },
    {
      "inputs": [
        {
          "internalType": "uint256",
          "name": "",
          "type": "uint256"
        }
      ],
      "name": "assetApprovals",
      "outputs": [
        {
          "internalType": "address",
          "name": "",
          "type": "address"
        }
      ],
      "stateMutability": "view",
      "type": "function"
    },
    {
      "inputs": [
        {
          "internalType": "address",
          "name": "owner",
          "type": "address"
        },
        {
          "internalType": "address",
          "name": "operator",
          "type": "address"
        }
      ],
      "name": "isApprovedForAll",
      "outputs": [
        {
          "internalType": "bool",
          "name": "",
          "type": "bool"
        }
      ],
      "stateMutability": "view",
      "type": "function"
    },
    {
      "inputs": [],
      "name": "name",
      "outputs": [
        {
          "internalType": "string",
          "name": "",
          "type": "string"
        }
      ],
      "stateMutability": "view",
      "type": "function"
    },
    {
      "inputs": [],
      "name": "owner",
      "outputs": [
        {
          "internalType": "address",
          "name": "",
          "type": "address"
        }
      ],
      "stateMutability": "view",
      "type": "function"
    },
    {
      "inputs": [],
      "name": "recCount",
      "outputs": [
        {
          "internalType": "uint256",
          "name": "",
          "type": "uint256"
        }
      ],
      "stateMutability": "view",
      "type": "function"
    },
    {
      "inputs": [
        {
          "internalType": "uint256",
          "name": "",
          "type": "uint256"
        }
      ],
      "name": "recs",
      "outputs": [
        {
          "internalType": "uint256",
          "name": "id",
          "type": "uint256"
        },
        {
          "internalType": "string",
          "name": "name",
          "type": "string"
        },
        {
          "internalType": "uint256",
          "name": "quantity",
          "type": "uint256"
        },
        {
          "internalType": "uint256",
          "name": "price",
          "type": "uint256"
        },
        {
          "internalType": "enum RenewableEnergyToken.Status",
          "name": "status",
          "type": "uint8"
        }
      ],
      "stateMutability": "view",
      "type": "function"
    },
    {
      "inputs": [
        {
          "internalType": "address",
          "name": "from",
          "type": "address"
        },
        {
          "internalType": "address",
          "name": "to",
          "type": "address"
        },
        {
          "internalType": "uint256",
          "name": "tokenId",
          "type": "uint256"
        }
      ],
      "name": "safeTransferFrom",
      "outputs": [],
      "stateMutability": "nonpayable",
      "type": "function"
    },
    {
      "inputs": [
        {
          "internalType": "address",
          "name": "from",
          "type": "address"
        },
        {
          "internalType": "address",
          "name": "to",
          "type": "address"
        },
        {
          "internalType": "uint256",
          "name": "tokenId",
          "type": "uint256"
        },
        {
          "internalType": "bytes",
          "name": "data",
          "type": "bytes"
        }
      ],
      "name": "safeTransferFrom",
      "outputs": [],
      "stateMutability": "nonpayable",
      "type": "function"
    },
    {
      "inputs": [
        {
          "internalType": "address",
          "name": "operator",
          "type": "address"
        },
        {
          "internalType": "bool",
          "name": "approved",
          "type": "bool"
        }
      ],
      "name": "setApprovalForAll",
      "outputs": [],
      "stateMutability": "nonpayable",
      "type": "function"
    },
    {
      "inputs": [
        {
          "internalType": "bytes4",
          "name": "interfaceId",
          "type": "bytes4"
        }
      ],
      "name": "supportsInterface",
      "outputs": [
        {
          "internalType": "bool",
          "name": "",
          "type": "bool"
        }
      ],
      "stateMutability": "view",
      "type": "function"
    },
    {
      "inputs": [],
      "name": "symbol",
      "outputs": [
        {
          "internalType": "string",
          "name": "",
          "type": "string"
        }
      ],
      "stateMutability": "view",
      "type": "function"
    },
    {
      "inputs": [
        {
          "internalType": "uint256",
          "name": "tokenId",
          "type": "uint256"
        }
      ],
      "name": "tokenURI",
      "outputs": [
        {
          "internalType": "string",
          "name": "",
          "type": "string"
        }
      ],
      "stateMutability": "view",
      "type": "function"
    },
    {
      "inputs": [
        {
          "internalType": "address",
          "name": "user",
          "type": "address"
        }
      ],
      "name": "getUserRole",
      "outputs": [
        {
          "internalType": "string",
          "name": "",
          "type": "string"
        }
      ],
      "stateMutability": "view",
      "type": "function"
    },
    {
      "inputs": [
        {
          "internalType": "address",
          "name": "owner",
          "type": "address"
        }
      ],
      "name": "balanceOf",
      "outputs": [
        {
          "internalType": "uint256",
          "name": "",
          "type": "uint256"
        }
      ],
      "stateMutability": "view",
      "type": "function"
    },
    {
      "inputs": [],
      "name": "balanceOf",
      "outputs": [
        {
          "internalType": "uint256",
          "name": "",
          "type": "uint256"
        }
      ],
      "stateMutability": "view",
      "type": "function"
    },
    {
      "inputs": [
        {
          "internalType": "uint256",
          "name": "assetId",
          "type": "uint256"
        }
      ],
      "name": "ownerOf",
      "outputs": [
        {
          "internalType": "address",
          "name": "",
          "type": "address"
        }
      ],
      "stateMutability": "view",
      "type": "function"
    },
    {
      "inputs": [
        {
          "internalType": "uint256",
          "name": "assetId",
          "type": "uint256"
        },
        {
          "internalType": "uint256",
          "name": "value",
          "type": "uint256"
        }
      ],
      "name": "appreciate",
      "outputs": [],
      "stateMutability": "nonpayable",
      "type": "function"
    },
    {
      "inputs": [
        {
          "internalType": "uint256",
          "name": "assetId",
          "type": "uint256"
        },
        {
          "internalType": "uint256",
          "name": "value",
          "type": "uint256"
        }
      ],
      "name": "depreciate",
      "outputs": [],
      "stateMutability": "nonpayable",
      "type": "function"
    },
    {
      "inputs": [
        {
          "internalType": "address payable",
          "name": "from",
          "type": "address"
        },
        {
          "internalType": "uint256",
          "name": "recId",
          "type": "uint256"
        }
      ],
      "name": "transferFrom",
      "outputs": [],
      "stateMutability": "payable",
      "type": "function"
    },
    {
      "inputs": [
        {
          "internalType": "address",
          "name": "from",
          "type": "address"
        },
        {
          "internalType": "address",
          "name": "to",
          "type": "address"
        },
        {
          "internalType": "uint256",
          "name": "tokenId",
          "type": "uint256"
        }
      ],
      "name": "transferFrom",
      "outputs": [],
      "stateMutability": "nonpayable",
      "type": "function"
    },
    {
      "inputs": [
        {
          "internalType": "address",
          "name": "to",
          "type": "address"
        },
        {
          "internalType": "uint256",
          "name": "assetId",
          "type": "uint256"
        }
      ],
      "name": "approve",
      "outputs": [],
      "stateMutability": "nonpayable",
      "type": "function"
    },
    {
      "inputs": [
        {
          "internalType": "uint256",
          "name": "assetId",
          "type": "uint256"
        }
      ],
      "name": "getApproved",
      "outputs": [
        {
          "internalType": "address",
          "name": "",
          "type": "address"
        }
      ],
      "stateMutability": "view",
      "type": "function"
    },
    {
      "inputs": [
        {
          "internalType": "uint256",
          "name": "assetId",
          "type": "uint256"
        },
        {
          "internalType": "address",
          "name": "approved",
          "type": "address"
        }
      ],
      "name": "clearApproval",
      "outputs": [],
      "stateMutability": "nonpayable",
      "type": "function"
    },
    {
      "inputs": [
        {
          "internalType": "string",
          "name": "name",
          "type": "string"
        },
        {
          "internalType": "uint256",
          "name": "quantity",
          "type": "uint256"
        },
        {
          "internalType": "address",
          "name": "sellerAddress",
          "type": "address"
        }
      ],
      "name": "generateREC",
      "outputs": [],
      "stateMutability": "payable",
      "type": "function"
    },
    {
      "inputs": [],
      "name": "getAddressList",
      "outputs": [
        {
          "internalType": "address[]",
          "name": "",
          "type": "address[]"
        }
      ],
      "stateMutability": "view",
      "type": "function"
    },
    {
      "inputs": [
        {
          "internalType": "uint256",
          "name": "id",
          "type": "uint256"
        }
      ],
      "name": "getCertificate",
      "outputs": [
        {
          "internalType": "uint256",
          "name": "",
          "type": "uint256"
        },
        {
          "internalType": "string",
          "name": "",
          "type": "string"
        },
        {
          "internalType": "uint256",
          "name": "",
          "type": "uint256"
        },
        {
          "internalType": "uint256",
          "name": "",
          "type": "uint256"
        },
        {
          "internalType": "address",
          "name": "",
          "type": "address"
        },
        {
          "internalType": "enum RenewableEnergyToken.Status",
          "name": "",
          "type": "uint8"
        }
      ],
      "stateMutability": "view",
      "type": "function"
    },
    {
      "inputs": [
        {
          "internalType": "uint256",
          "name": "id",
          "type": "uint256"
        }
      ],
      "name": "verifyREC",
      "outputs": [
        {
          "internalType": "bool",
          "name": "",
          "type": "bool"
        }
      ],
      "stateMutability": "view",
      "type": "function"
    },
    {
      "inputs": [
        {
          "internalType": "address",
          "name": "userAddress",
          "type": "address"
        }
      ],
      "name": "approveDistributor",
      "outputs": [],
      "stateMutability": "nonpayable",
      "type": "function"
    },
    {
      "inputs": [
        {
          "internalType": "address",
          "name": "userAddress",
          "type": "address"
        }
      ],
      "name": "approveUser",
      "outputs": [],
      "stateMutability": "nonpayable",
      "type": "function"
    },
    {
      "inputs": [
        {
          "internalType": "string",
          "name": "id",
          "type": "string"
        },
        {
          "internalType": "string",
          "name": "name",
          "type": "string"
        },
        {
          "internalType": "address",
          "name": "userAddress",
          "type": "address"
        }
      ],
      "name": "selfRegister",
      "outputs": [],
      "stateMutability": "nonpayable",
      "type": "function"
    },
    {
      "inputs": [],
      "name": "topupBalance",
      "outputs": [],
      "stateMutability": "payable",
      "type": "function"
    }
  ],
  "bytecode": "0x608060405234801562000010575f80fd5b506040518060400160405280601481526020017f52656e657761626c65456e65726779546f6b656e0000000000000000000000008152506040518060400160405280600381526020017f5245540000000000000000000000000000000000000000000000000000000000815250815f90816200008d9190620003cd565b5080600190816200009f9190620003cd565b5050503360065f6101000a81548173ffffffffffffffffffffffffffffffffffffffff021916908373ffffffffffffffffffffffffffffffffffffffff160217905550600c60065f9054906101000a900473ffffffffffffffffffffffffffffffffffffffff16908060018154018082558091505060019003905f5260205f20015f9091909190916101000a81548173ffffffffffffffffffffffffffffffffffffffff021916908373ffffffffffffffffffffffffffffffffffffffff160217905550620004b1565b5f81519050919050565b7f4e487b71000000000000000000000000000000000000000000000000000000005f52604160045260245ffd5b7f4e487b71000000000000000000000000000000000000000000000000000000005f52602260045260245ffd5b5f6002820490506001821680620001e557607f821691505b602082108103620001fb57620001fa620001a0565b5b50919050565b5f819050815f5260205f209050919050565b5f6020601f8301049050919050565b5f82821b905092915050565b5f600883026200025f7fffffffffffffffffffffffffffffffffffffffffffffffffffffffffffffffff8262000222565b6200026b868362000222565b95508019841693508086168417925050509392505050565b5f819050919050565b5f819050919050565b5f620002b5620002af620002a98462000283565b6200028c565b62000283565b9050919050565b5f819050919050565b620002d08362000295565b620002e8620002df82620002bc565b8484546200022e565b825550505050565b5f90565b620002fe620002f0565b6200030b818484620002c5565b505050565b5b818110156200033257620003265f82620002f4565b60018101905062000311565b5050565b601f82111562000381576200034b8162000201565b620003568462000213565b8101602085101562000366578190505b6200037e620003758562000213565b83018262000310565b50505b505050565b5f82821c905092915050565b5f620003a35f198460080262000386565b1980831691505092915050565b5f620003bd838362000392565b9150826002028217905092915050565b620003d88262000169565b67ffffffffffffffff811115620003f457620003f362000173565b5b620004008254620001cd565b6200040d82828562000336565b5f60209050601f83116001811462000443575f84156200042e578287015190505b6200043a8582620003b0565b865550620004a9565b601f198416620004538662000201565b5f5b828110156200047c5784890151825560018201915060208501945060208101905062000455565b868310156200049c578489015162000498601f89168262000392565b8355505b6001600288020188555050505b505050505050565b614f9480620004bf5f395ff3fe6080604052600436106101d7575f3560e01c806370a08231116101015780639f980f9111610094578063d624fdb611610063578063d624fdb6146106c6578063daa5fe2d146106ee578063e985e9c514610716578063f2844dd514610752576101d7565b80639f980f9114610612578063a22cb4651461063a578063b88d4fde14610662578063c87b56dd1461068a576101d7565b806384acbb89116100d057806384acbb89146105565780638da5cb5b1461059657806395084a41146105c057806395d89b41146105e8576101d7565b806370a082311461048a57806371e06925146104c6578063722713f714610502578063811191301461052c576101d7565b80632782085111610179578063467ee32111610148578063467ee321146103db578063482aede5146103e557806351640fee1461040d5780636352211e1461044e576101d7565b806327820851146103255780632b34af511461036157806334b1da131461038957806342842e0e146103b3576101d7565b806306fdde03116101b557806306fdde031461026f578063081812fc14610299578063095ea7b3146102d557806323b872dd146102fd576101d7565b806301c6adc3146101db57806301ffc9a7146101f75780630338577014610233575b5f80fd5b6101f560048036038101906101f09190613671565b61076e565b005b348015610202575f80fd5b5061021d60048036038101906102189190613704565b6109d5565b60405161022a9190613749565b60405180910390f35b34801561023e575f80fd5b5061025960048036038101906102549190613762565b610ab6565b60405161026691906137ad565b60405180910390f35b34801561027a575f80fd5b50610283610ae6565b6040516102909190613850565b60405180910390f35b3480156102a4575f80fd5b506102bf60048036038101906102ba9190613762565b610b75565b6040516102cc91906137ad565b60405180910390f35b3480156102e0575f80fd5b506102fb60048036038101906102f6919061389a565b610bf6565b005b348015610308575f80fd5b50610323600480360381019061031e91906138d8565b610d8d565b005b348015610330575f80fd5b5061034b60048036038101906103469190613928565b610e8c565b6040516103589190613850565b60405180910390f35b34801561036c575f80fd5b5061038760048036038101906103829190613953565b611112565b005b348015610394575f80fd5b5061039d611231565b6040516103aa91906139a0565b60405180910390f35b3480156103be575f80fd5b506103d960048036038101906103d491906138d8565b611237565b005b6103e3611256565b005b3480156103f0575f80fd5b5061040b60048036038101906104069190613928565b61142b565b005b348015610418575f80fd5b50610433600480360381019061042e9190613762565b6115d9565b60405161044596959493929190613a2c565b60405180910390f35b348015610459575f80fd5b50610474600480360381019061046f9190613762565b611826565b60405161048191906137ad565b60405180910390f35b348015610495575f80fd5b506104b060048036038101906104ab9190613928565b6118d2565b6040516104bd91906139a0565b60405180910390f35b3480156104d1575f80fd5b506104ec60048036038101906104e79190613762565b611988565b6040516104f99190613749565b60405180910390f35b34801561050d575f80fd5b50610516611b59565b60405161052391906139a0565b60405180910390f35b348015610537575f80fd5b50610540611c0b565b60405161054d9190613b49565b60405180910390f35b348015610561575f80fd5b5061057c60048036038101906105779190613762565b611c96565b60405161058d959493929190613b69565b60405180910390f35b3480156105a1575f80fd5b506105aa611d5a565b6040516105b791906137ad565b60405180910390f35b3480156105cb575f80fd5b506105e660048036038101906105e19190613ced565b611d7f565b005b3480156105f3575f80fd5b506105fc611f28565b6040516106099190613850565b60405180910390f35b34801561061d575f80fd5b5061063860048036038101906106339190613953565b611fb8565b005b348015610645575f80fd5b50610660600480360381019061065b9190613d9f565b6120d7565b005b34801561066d575f80fd5b5061068860048036038101906106839190613e7b565b6120ed565b005b348015610695575f80fd5b506106b060048036038101906106ab9190613762565b61210a565b6040516106bd9190613850565b60405180910390f35b3480156106d1575f80fd5b506106ec60048036038101906106e79190613928565b612170565b005b3480156106f9575f80fd5b50610714600480360381019061070f9190613efb565b612357565b005b348015610721575f80fd5b5061073c60048036038101906107379190613f39565b61240e565b6040516107499190613749565b60405180910390f35b61076c60048036038101906107679190613f77565b61249c565b005b61077833826126e8565b6107b7576040517f08c379a00000000000000000000000000000000000000000000000000000000081526004016107ae9061402d565b60405180910390fd5b8173ffffffffffffffffffffffffffffffffffffffff166107d782611826565b73ffffffffffffffffffffffffffffffffffffffff161461082d576040517f08c379a000000000000000000000000000000000000000000000000000000000815260040161082490614095565b60405180910390fd5b61083f8161083a83610b75565b612357565b600a5f8373ffffffffffffffffffffffffffffffffffffffff1673ffffffffffffffffffffffffffffffffffffffff1681526020019081526020015f205f81548092919061088c906140e0565b9190505550600a5f3373ffffffffffffffffffffffffffffffffffffffff1673ffffffffffffffffffffffffffffffffffffffff1681526020019081526020015f205f8154809291906108de90614107565b91905055503360095f8381526020019081526020015f205f6101000a81548173ffffffffffffffffffffffffffffffffffffffff021916908373ffffffffffffffffffffffffffffffffffffffff1602179055508173ffffffffffffffffffffffffffffffffffffffff166108fc3490811502906040515f60405180830381858888f19350505050158015610975573d5f803e3d5ffd5b50803373ffffffffffffffffffffffffffffffffffffffff168373ffffffffffffffffffffffffffffffffffffffff167fddf252ad1be2c89b69c2b068fc378daa952ba7f163c4a11628f55a4df523b3ef60405160405180910390a45050565b5f7f80ac58cd000000000000000000000000000000000000000000000000000000007bffffffffffffffffffffffffffffffffffffffffffffffffffffffff1916827bffffffffffffffffffffffffffffffffffffffffffffffffffffffff19161480610a9f57507f5b5e139f000000000000000000000000000000000000000000000000000000007bffffffffffffffffffffffffffffffffffffffffffffffffffffffff1916827bffffffffffffffffffffffffffffffffffffffffffffffffffffffff1916145b80610aaf5750610aae826127b3565b5b9050919050565b600b602052805f5260405f205f915054906101000a900473ffffffffffffffffffffffffffffffffffffffff1681565b60605f8054610af49061417b565b80601f0160208091040260200160405190810160405280929190818152602001828054610b209061417b565b8015610b6b5780601f10610b4257610100808354040283529160200191610b6b565b820191905f5260205f20905b815481529060010190602001808311610b4e57829003601f168201915b5050505050905090565b5f610b7f8261281c565b610bbe576040517f08c379a0000000000000000000000000000000000000000000000000000000008152600401610bb59061421b565b60405180910390fd5b600b5f8381526020019081526020015f205f9054906101000a900473ffffffffffffffffffffffffffffffffffffffff169050919050565b5f610c0082611826565b90508073ffffffffffffffffffffffffffffffffffffffff168373ffffffffffffffffffffffffffffffffffffffff1603610c70576040517f08c379a0000000000000000000000000000000000000000000000000000000008152600401610c6790614283565b60405180910390fd5b8073ffffffffffffffffffffffffffffffffffffffff163373ffffffffffffffffffffffffffffffffffffffff1614610cde576040517f08c379a0000000000000000000000000000000000000000000000000000000008152600401610cd5906142eb565b60405180910390fd5b82600b5f8481526020019081526020015f205f6101000a81548173ffffffffffffffffffffffffffffffffffffffff021916908373ffffffffffffffffffffffffffffffffffffffff160217905550818373ffffffffffffffffffffffffffffffffffffffff168273ffffffffffffffffffffffffffffffffffffffff167f8c5be1e5ebec7d5bd14f71427d1e84f3dd0314c0f7b2291e5b200ac8c7c3b92560405160405180910390a4505050565b5f73ffffffffffffffffffffffffffffffffffffffff168273ffffffffffffffffffffffffffffffffffffffff1603610dfd575f6040517f64a0ae92000000000000000000000000000000000000000000000000000000008152600401610df491906137ad565b60405180910390fd5b5f610e108383610e0b612884565b61288b565b90508373ffffffffffffffffffffffffffffffffffffffff168173ffffffffffffffffffffffffffffffffffffffff1614610e86578382826040517f64283d7b000000000000000000000000000000000000000000000000000000008152600401610e7d93929190614309565b60405180910390fd5b50505050565b606060065f9054906101000a900473ffffffffffffffffffffffffffffffffffffffff1673ffffffffffffffffffffffffffffffffffffffff168273ffffffffffffffffffffffffffffffffffffffff1603610f1f576040518060400160405280600581526020017f6f776e6572000000000000000000000000000000000000000000000000000000815250905061110d565b600d5f8373ffffffffffffffffffffffffffffffffffffffff1673ffffffffffffffffffffffffffffffffffffffff1681526020019081526020015f206004015f9054906101000a900460ff1615610fae576040518060400160405280600b81526020017f6469737472696275746f72000000000000000000000000000000000000000000815250905061110d565b600d5f8373ffffffffffffffffffffffffffffffffffffffff1673ffffffffffffffffffffffffffffffffffffffff1681526020019081526020015f2060040160019054906101000a900460ff161561103e576040518060400160405280600a81526020017f7265676973746572656400000000000000000000000000000000000000000000815250905061110d565b5f600d5f8473ffffffffffffffffffffffffffffffffffffffff1673ffffffffffffffffffffffffffffffffffffffff1681526020019081526020015f2090505f815f01805461108d9061417b565b905011156110d3576040518060400160405280601081526020017f6e6f74207965742076657269666965640000000000000000000000000000000081525091505061110d565b6040518060400160405280600481526020017f6e6f6e65000000000000000000000000000000000000000000000000000000008152509150505b919050565b60065f9054906101000a900473ffffffffffffffffffffffffffffffffffffffff1673ffffffffffffffffffffffffffffffffffffffff163373ffffffffffffffffffffffffffffffffffffffff1614806111b65750600d5f3373ffffffffffffffffffffffffffffffffffffffff1673ffffffffffffffffffffffffffffffffffffffff1681526020019081526020015f206004015f9054906101000a900460ff165b6111f5576040517f08c379a00000000000000000000000000000000000000000000000000000000081526004016111ec90614388565b60405180910390fd5b8060085f8481526020019081526020015f206003015461121591906143a6565b60085f8481526020019081526020015f20600301819055505050565b60075481565b61125183838360405180602001604052805f8152506120ed565b505050565b60065f9054906101000a900473ffffffffffffffffffffffffffffffffffffffff1673ffffffffffffffffffffffffffffffffffffffff163373ffffffffffffffffffffffffffffffffffffffff1614806112fb5750600d5f3373ffffffffffffffffffffffffffffffffffffffff1673ffffffffffffffffffffffffffffffffffffffff1681526020019081526020015f2060040160019054906101000a900460ff165b61133a576040517f08c379a000000000000000000000000000000000000000000000000000000000815260040161133190614449565b60405180910390fd5b5f600d5f3373ffffffffffffffffffffffffffffffffffffffff1673ffffffffffffffffffffffffffffffffffffffff1681526020019081526020015f2090505f815f0180546113899061417b565b9050036113cb576040517f08c379a00000000000000000000000000000000000000000000000000000000081526004016113c2906144b1565b60405180910390fd5b5f34101561140e576040517f08c379a000000000000000000000000000000000000000000000000000000000815260040161140590614519565b60405180910390fd5b34816002015f82825461142191906143a6565b9250508190555050565b60065f9054906101000a900473ffffffffffffffffffffffffffffffffffffffff1673ffffffffffffffffffffffffffffffffffffffff163373ffffffffffffffffffffffffffffffffffffffff16146114ba576040517f08c379a00000000000000000000000000000000000000000000000000000000081526004016114b190614581565b60405180910390fd5b5f600d5f8373ffffffffffffffffffffffffffffffffffffffff1673ffffffffffffffffffffffffffffffffffffffff1681526020019081526020015f2090505f815f0180546115099061417b565b90501161154b576040517f08c379a0000000000000000000000000000000000000000000000000000000008152600401611542906145e9565b60405180910390fd5b806004015f9054906101000a900460ff161561159c576040517f08c379a000000000000000000000000000000000000000000000000000000000815260040161159390614651565b60405180910390fd5b6001816004015f6101000a81548160ff02191690831515021790555060018160040160016101000a81548160ff0219169083151502179055505050565b5f60605f805f8060065f9054906101000a900473ffffffffffffffffffffffffffffffffffffffff1673ffffffffffffffffffffffffffffffffffffffff163373ffffffffffffffffffffffffffffffffffffffff1614806116855750600d5f3373ffffffffffffffffffffffffffffffffffffffff1673ffffffffffffffffffffffffffffffffffffffff1681526020019081526020015f2060040160019054906101000a900460ff165b6116c4576040517f08c379a00000000000000000000000000000000000000000000000000000000081526004016116bb90614449565b60405180910390fd5b5f60085f8981526020019081526020015f206040518060a00160405290815f82015481526020016001820180546116fa9061417b565b80601f01602080910402602001604051908101604052809291908181526020018280546117269061417b565b80156117715780601f1061174857610100808354040283529160200191611771565b820191905f5260205f20905b81548152906001019060200180831161175457829003601f168201915b505050505081526020016002820154815260200160038201548152602001600482015f9054906101000a900460ff1660018111156117b2576117b16139b9565b5b60018111156117c4576117c36139b9565b5b8152505090508781602001518260400151836060015160095f8d81526020019081526020015f205f9054906101000a900473ffffffffffffffffffffffffffffffffffffffff1685608001519650965096509650965096505091939550919395565b5f8060095f8481526020019081526020015f205f9054906101000a900473ffffffffffffffffffffffffffffffffffffffff1690505f73ffffffffffffffffffffffffffffffffffffffff168173ffffffffffffffffffffffffffffffffffffffff16036118c9576040517f08c379a00000000000000000000000000000000000000000000000000000000081526004016118c0906146b9565b60405180910390fd5b80915050919050565b5f8073ffffffffffffffffffffffffffffffffffffffff168273ffffffffffffffffffffffffffffffffffffffff1603611943575f6040517f89c62b6400000000000000000000000000000000000000000000000000000000815260040161193a91906137ad565b60405180910390fd5b60035f8373ffffffffffffffffffffffffffffffffffffffff1673ffffffffffffffffffffffffffffffffffffffff1681526020019081526020015f20549050919050565b5f60065f9054906101000a900473ffffffffffffffffffffffffffffffffffffffff1673ffffffffffffffffffffffffffffffffffffffff163373ffffffffffffffffffffffffffffffffffffffff161480611a2e5750600d5f3373ffffffffffffffffffffffffffffffffffffffff1673ffffffffffffffffffffffffffffffffffffffff1681526020019081526020015f2060040160019054906101000a900460ff165b611a6d576040517f08c379a0000000000000000000000000000000000000000000000000000000008152600401611a6490614449565b60405180910390fd5b5f821015611ab0576040517f08c379a0000000000000000000000000000000000000000000000000000000008152600401611aa790614721565b60405180910390fd5b5f60085f8481526020019081526020015f2090506007548310611b08576040517f08c379a0000000000000000000000000000000000000000000000000000000008152600401611aff90614789565b60405180910390fd5b8060030154471015611b4f576040517f08c379a0000000000000000000000000000000000000000000000000000000008152600401611b46906147f1565b60405180910390fd5b6001915050919050565b5f8073ffffffffffffffffffffffffffffffffffffffff163373ffffffffffffffffffffffffffffffffffffffff1603611bc8576040517f08c379a0000000000000000000000000000000000000000000000000000000008152600401611bbf9061487f565b60405180910390fd5b600a5f3373ffffffffffffffffffffffffffffffffffffffff1673ffffffffffffffffffffffffffffffffffffffff1681526020019081526020015f2054905090565b6060600c805480602002602001604051908101604052809291908181526020018280548015611c8c57602002820191905f5260205f20905b815f9054906101000a900473ffffffffffffffffffffffffffffffffffffffff1673ffffffffffffffffffffffffffffffffffffffff1681526020019060010190808311611c43575b5050505050905090565b6008602052805f5260405f205f91509050805f015490806001018054611cbb9061417b565b80601f0160208091040260200160405190810160405280929190818152602001828054611ce79061417b565b8015611d325780601f10611d0957610100808354040283529160200191611d32565b820191905f5260205f20905b815481529060010190602001808311611d1557829003601f168201915b505050505090806002015490806003015490806004015f9054906101000a900460ff16905085565b60065f9054906101000a900473ffffffffffffffffffffffffffffffffffffffff1681565b5f8351118015611d8f57505f8251115b611dce576040517f08c379a0000000000000000000000000000000000000000000000000000000008152600401611dc5906148e7565b60405180910390fd5b5f600d5f3373ffffffffffffffffffffffffffffffffffffffff1673ffffffffffffffffffffffffffffffffffffffff1681526020019081526020015f2090505f815f018054611e1d9061417b565b905014611e5f576040517f08c379a0000000000000000000000000000000000000000000000000000000008152600401611e569061494f565b60405180910390fd5b83815f019081611e6f9190614b0a565b5082816001019081611e819190614b0a565b504781600201819055505f816004015f6101000a81548160ff0219169083151502179055505f8160040160016101000a81548160ff021916908315150217905550600c82908060018154018082558091505060019003905f5260205f20015f9091909190916101000a81548173ffffffffffffffffffffffffffffffffffffffff021916908373ffffffffffffffffffffffffffffffffffffffff16021790555050505050565b606060018054611f379061417b565b80601f0160208091040260200160405190810160405280929190818152602001828054611f639061417b565b8015611fae5780601f10611f8557610100808354040283529160200191611fae565b820191905f5260205f20905b815481529060010190602001808311611f9157829003601f168201915b5050505050905090565b60065f9054906101000a900473ffffffffffffffffffffffffffffffffffffffff1673ffffffffffffffffffffffffffffffffffffffff163373ffffffffffffffffffffffffffffffffffffffff16148061205c5750600d5f3373ffffffffffffffffffffffffffffffffffffffff1673ffffffffffffffffffffffffffffffffffffffff1681526020019081526020015f206004015f9054906101000a900460ff165b61209b576040517f08c379a000000000000000000000000000000000000000000000000000000000815260040161209290614388565b60405180910390fd5b8060085f8481526020019081526020015f20600301546120bb9190614bd9565b60085f8481526020019081526020015f20600301819055505050565b6120e96120e2612884565b8383612a96565b5050565b6120f8848484610d8d565b61210484848484612bff565b50505050565b606061211582612db1565b505f61211f612e37565b90505f81511161213d5760405180602001604052805f815250612168565b8061214784612e4d565b604051602001612158929190614c46565b6040516020818303038152906040525b915050919050565b60065f9054906101000a900473ffffffffffffffffffffffffffffffffffffffff1673ffffffffffffffffffffffffffffffffffffffff163373ffffffffffffffffffffffffffffffffffffffff1614806122145750600d5f3373ffffffffffffffffffffffffffffffffffffffff1673ffffffffffffffffffffffffffffffffffffffff1681526020019081526020015f206004015f9054906101000a900460ff165b612253576040517f08c379a000000000000000000000000000000000000000000000000000000000815260040161224a90614388565b60405180910390fd5b5f600d5f8373ffffffffffffffffffffffffffffffffffffffff1673ffffffffffffffffffffffffffffffffffffffff1681526020019081526020015f2090505f815f0180546122a29061417b565b9050116122e4576040517f08c379a00000000000000000000000000000000000000000000000000000000081526004016122db906145e9565b60405180910390fd5b8060040160019054906101000a900460ff1615612336576040517f08c379a000000000000000000000000000000000000000000000000000000000815260040161232d90614cb3565b60405180910390fd5b60018160040160016101000a81548160ff0219169083151502179055505050565b8073ffffffffffffffffffffffffffffffffffffffff16600b5f8481526020019081526020015f205f9054906101000a900473ffffffffffffffffffffffffffffffffffffffff1673ffffffffffffffffffffffffffffffffffffffff160361240a575f600b5f8481526020019081526020015f205f6101000a81548173ffffffffffffffffffffffffffffffffffffffff021916908373ffffffffffffffffffffffffffffffffffffffff1602179055505b5050565b5f60055f8473ffffffffffffffffffffffffffffffffffffffff1673ffffffffffffffffffffffffffffffffffffffff1681526020019081526020015f205f8373ffffffffffffffffffffffffffffffffffffffff1673ffffffffffffffffffffffffffffffffffffffff1681526020019081526020015f205f9054906101000a900460ff16905092915050565b60065f9054906101000a900473ffffffffffffffffffffffffffffffffffffffff1673ffffffffffffffffffffffffffffffffffffffff163373ffffffffffffffffffffffffffffffffffffffff1614806125405750600d5f3373ffffffffffffffffffffffffffffffffffffffff1673ffffffffffffffffffffffffffffffffffffffff1681526020019081526020015f206004015f9054906101000a900460ff165b61257f576040517f08c379a000000000000000000000000000000000000000000000000000000000815260040161257690614388565b60405180910390fd5b5f835111801561258e57505f82115b801561259957505f34115b80156125d157505f73ffffffffffffffffffffffffffffffffffffffff168173ffffffffffffffffffffffffffffffffffffffff1614155b612610576040517f08c379a0000000000000000000000000000000000000000000000000000000008152600401612607906148e7565b60405180910390fd5b6040518060a0016040528060075481526020018481526020018381526020013481526020015f6001811115612648576126476139b9565b5b81525060085f60075481526020019081526020015f205f820151815f0155602082015181600101908161267b9190614b0a565b5060408201518160020155606082015181600301556080820151816004015f6101000a81548160ff021916908360018111156126ba576126b96139b9565b5b02179055509050506126ce81600754612f17565b60016007546126dd91906143a6565b600781905550505050565b5f6126f28261281c565b612731576040517f08c379a000000000000000000000000000000000000000000000000000000000815260040161272890614d41565b60405180910390fd5b5f61273b83611826565b90508073ffffffffffffffffffffffffffffffffffffffff168473ffffffffffffffffffffffffffffffffffffffff1614806127aa57508373ffffffffffffffffffffffffffffffffffffffff1661279284610b75565b73ffffffffffffffffffffffffffffffffffffffff16145b91505092915050565b5f7f01ffc9a7000000000000000000000000000000000000000000000000000000007bffffffffffffffffffffffffffffffffffffffffffffffffffffffff1916827bffffffffffffffffffffffffffffffffffffffffffffffffffffffff1916149050919050565b5f8073ffffffffffffffffffffffffffffffffffffffff1660095f8481526020019081526020015f205f9054906101000a900473ffffffffffffffffffffffffffffffffffffffff1673ffffffffffffffffffffffffffffffffffffffff1614159050919050565b5f33905090565b5f80612896846130ce565b90505f73ffffffffffffffffffffffffffffffffffffffff168373ffffffffffffffffffffffffffffffffffffffff16146128d7576128d6818486613107565b5b5f73ffffffffffffffffffffffffffffffffffffffff168173ffffffffffffffffffffffffffffffffffffffff1614612962576129165f855f806131ca565b600160035f8373ffffffffffffffffffffffffffffffffffffffff1673ffffffffffffffffffffffffffffffffffffffff1681526020019081526020015f205f82825403925050819055505b5f73ffffffffffffffffffffffffffffffffffffffff168573ffffffffffffffffffffffffffffffffffffffff16146129e157600160035f8773ffffffffffffffffffffffffffffffffffffffff1673ffffffffffffffffffffffffffffffffffffffff1681526020019081526020015f205f82825401925050819055505b8460025f8681526020019081526020015f205f6101000a81548173ffffffffffffffffffffffffffffffffffffffff021916908373ffffffffffffffffffffffffffffffffffffffff160217905550838573ffffffffffffffffffffffffffffffffffffffff168273ffffffffffffffffffffffffffffffffffffffff167fddf252ad1be2c89b69c2b068fc378daa952ba7f163c4a11628f55a4df523b3ef60405160405180910390a4809150509392505050565b5f73ffffffffffffffffffffffffffffffffffffffff168273ffffffffffffffffffffffffffffffffffffffff1603612b0657816040517f5b08ba18000000000000000000000000000000000000000000000000000000008152600401612afd91906137ad565b60405180910390fd5b8060055f8573ffffffffffffffffffffffffffffffffffffffff1673ffffffffffffffffffffffffffffffffffffffff1681526020019081526020015f205f8473ffffffffffffffffffffffffffffffffffffffff1673ffffffffffffffffffffffffffffffffffffffff1681526020019081526020015f205f6101000a81548160ff0219169083151502179055508173ffffffffffffffffffffffffffffffffffffffff168373ffffffffffffffffffffffffffffffffffffffff167f17307eab39ab6107e8899845ad3d59bd9653f200f220920489ca2b5937696c3183604051612bf29190613749565b60405180910390a3505050565b5f8373ffffffffffffffffffffffffffffffffffffffff163b1115612dab578273ffffffffffffffffffffffffffffffffffffffff1663150b7a02612c42612884565b8685856040518563ffffffff1660e01b8152600401612c649493929190614db1565b6020604051808303815f875af1925050508015612c9f57506040513d601f19601f82011682018060405250810190612c9c9190614e0f565b60015b612d20573d805f8114612ccd576040519150601f19603f3d011682016040523d82523d5f602084013e612cd2565b606091505b505f815103612d1857836040517f64a0ae92000000000000000000000000000000000000000000000000000000008152600401612d0f91906137ad565b60405180910390fd5b805181602001fd5b63150b7a0260e01b7bffffffffffffffffffffffffffffffffffffffffffffffffffffffff1916817bffffffffffffffffffffffffffffffffffffffffffffffffffffffff191614612da957836040517f64a0ae92000000000000000000000000000000000000000000000000000000008152600401612da091906137ad565b60405180910390fd5b505b50505050565b5f80612dbc836130ce565b90505f73ffffffffffffffffffffffffffffffffffffffff168173ffffffffffffffffffffffffffffffffffffffff1603612e2e57826040517f7e273289000000000000000000000000000000000000000000000000000000008152600401612e2591906139a0565b60405180910390fd5b80915050919050565b606060405180602001604052805f815250905090565b60605f6001612e5b84613389565b0190505f8167ffffffffffffffff811115612e7957612e78613bc9565b5b6040519080825280601f01601f191660200182016040528015612eab5781602001600182028036833780820191505090505b5090505f82602001820190505b600115612f0c578080600190039150507f3031323334353637383961626364656600000000000000000000000000000000600a86061a8153600a8581612f0157612f00614e3a565b5b0494505f8503612eb8575b819350505050919050565b5f73ffffffffffffffffffffffffffffffffffffffff168273ffffffffffffffffffffffffffffffffffffffff1603612f85576040517f08c379a0000000000000000000000000000000000000000000000000000000008152600401612f7c90614eb1565b60405180910390fd5b612f8e8161281c565b15612fce576040517f08c379a0000000000000000000000000000000000000000000000000000000008152600401612fc590614f19565b60405180910390fd5b8160095f8381526020019081526020015f205f6101000a81548173ffffffffffffffffffffffffffffffffffffffff021916908373ffffffffffffffffffffffffffffffffffffffff160217905550600a5f8373ffffffffffffffffffffffffffffffffffffffff1673ffffffffffffffffffffffffffffffffffffffff1681526020019081526020015f205f81548092919061306a90614107565b9190505550808273ffffffffffffffffffffffffffffffffffffffff165f73ffffffffffffffffffffffffffffffffffffffff167fddf252ad1be2c89b69c2b068fc378daa952ba7f163c4a11628f55a4df523b3ef60405160405180910390a45050565b5f60025f8381526020019081526020015f205f9054906101000a900473ffffffffffffffffffffffffffffffffffffffff169050919050565b6131128383836134da565b6131c5575f73ffffffffffffffffffffffffffffffffffffffff168373ffffffffffffffffffffffffffffffffffffffff160361318657806040517f7e27328900000000000000000000000000000000000000000000000000000000815260040161317d91906139a0565b60405180910390fd5b81816040517f177e802f0000000000000000000000000000000000000000000000000000000081526004016131bc929190614f37565b60405180910390fd5b505050565b808061320257505f73ffffffffffffffffffffffffffffffffffffffff168273ffffffffffffffffffffffffffffffffffffffff1614155b15613334575f61321184612db1565b90505f73ffffffffffffffffffffffffffffffffffffffff168373ffffffffffffffffffffffffffffffffffffffff161415801561327b57508273ffffffffffffffffffffffffffffffffffffffff168173ffffffffffffffffffffffffffffffffffffffff1614155b801561328e575061328c818461240e565b155b156132d057826040517fa9fbf51f0000000000000000000000000000000000000000000000000000000081526004016132c791906137ad565b60405180910390fd5b811561333257838573ffffffffffffffffffffffffffffffffffffffff168273ffffffffffffffffffffffffffffffffffffffff167f8c5be1e5ebec7d5bd14f71427d1e84f3dd0314c0f7b2291e5b200ac8c7c3b92560405160405180910390a45b505b8360045f8581526020019081526020015f205f6101000a81548173ffffffffffffffffffffffffffffffffffffffff021916908373ffffffffffffffffffffffffffffffffffffffff16021790555050505050565b5f805f90507a184f03e93ff9f4daa797ed6e38ed64bf6a1f01000000000000000083106133e5577a184f03e93ff9f4daa797ed6e38ed64bf6a1f01000000000000000083816133db576133da614e3a565b5b0492506040810190505b6d04ee2d6d415b85acef81000000008310613422576d04ee2d6d415b85acef8100000000838161341857613417614e3a565b5b0492506020810190505b662386f26fc10000831061345157662386f26fc10000838161344757613446614e3a565b5b0492506010810190505b6305f5e100831061347a576305f5e10083816134705761346f614e3a565b5b0492506008810190505b612710831061349f57612710838161349557613494614e3a565b5b0492506004810190505b606483106134c257606483816134b8576134b7614e3a565b5b0492506002810190505b600a83106134d1576001810190505b80915050919050565b5f8073ffffffffffffffffffffffffffffffffffffffff168373ffffffffffffffffffffffffffffffffffffffff161415801561359157508273ffffffffffffffffffffffffffffffffffffffff168473ffffffffffffffffffffffffffffffffffffffff1614806135525750613551848461240e565b5b8061359057508273ffffffffffffffffffffffffffffffffffffffff166135788361359a565b73ffffffffffffffffffffffffffffffffffffffff16145b5b90509392505050565b5f60045f8381526020019081526020015f205f9054906101000a900473ffffffffffffffffffffffffffffffffffffffff169050919050565b5f604051905090565b5f80fd5b5f80fd5b5f73ffffffffffffffffffffffffffffffffffffffff82169050919050565b5f61360d826135e4565b9050919050565b61361d81613603565b8114613627575f80fd5b50565b5f8135905061363881613614565b92915050565b5f819050919050565b6136508161363e565b811461365a575f80fd5b50565b5f8135905061366b81613647565b92915050565b5f8060408385031215613687576136866135dc565b5b5f6136948582860161362a565b92505060206136a58582860161365d565b9150509250929050565b5f7fffffffff0000000000000000000000000000000000000000000000000000000082169050919050565b6136e3816136af565b81146136ed575f80fd5b50565b5f813590506136fe816136da565b92915050565b5f60208284031215613719576137186135dc565b5b5f613726848285016136f0565b91505092915050565b5f8115159050919050565b6137438161372f565b82525050565b5f60208201905061375c5f83018461373a565b92915050565b5f60208284031215613777576137766135dc565b5b5f6137848482850161365d565b91505092915050565b5f613797826135e4565b9050919050565b6137a78161378d565b82525050565b5f6020820190506137c05f83018461379e565b92915050565b5f81519050919050565b5f82825260208201905092915050565b5f5b838110156137fd5780820151818401526020810190506137e2565b5f8484015250505050565b5f601f19601f8301169050919050565b5f613822826137c6565b61382c81856137d0565b935061383c8185602086016137e0565b61384581613808565b840191505092915050565b5f6020820190508181035f8301526138688184613818565b905092915050565b6138798161378d565b8114613883575f80fd5b50565b5f8135905061389481613870565b92915050565b5f80604083850312156138b0576138af6135dc565b5b5f6138bd85828601613886565b92505060206138ce8582860161365d565b9150509250929050565b5f805f606084860312156138ef576138ee6135dc565b5b5f6138fc86828701613886565b935050602061390d86828701613886565b925050604061391e8682870161365d565b9150509250925092565b5f6020828403121561393d5761393c6135dc565b5b5f61394a84828501613886565b91505092915050565b5f8060408385031215613969576139686135dc565b5b5f6139768582860161365d565b92505060206139878582860161365d565b9150509250929050565b61399a8161363e565b82525050565b5f6020820190506139b35f830184613991565b92915050565b7f4e487b71000000000000000000000000000000000000000000000000000000005f52602160045260245ffd5b600281106139f7576139f66139b9565b5b50565b5f819050613a07826139e6565b919050565b5f613a16826139fa565b9050919050565b613a2681613a0c565b82525050565b5f60c082019050613a3f5f830189613991565b8181036020830152613a518188613818565b9050613a606040830187613991565b613a6d6060830186613991565b613a7a608083018561379e565b613a8760a0830184613a1d565b979650505050505050565b5f81519050919050565b5f82825260208201905092915050565b5f819050602082019050919050565b613ac48161378d565b82525050565b5f613ad58383613abb565b60208301905092915050565b5f602082019050919050565b5f613af782613a92565b613b018185613a9c565b9350613b0c83613aac565b805f5b83811015613b3c578151613b238882613aca565b9750613b2e83613ae1565b925050600181019050613b0f565b5085935050505092915050565b5f6020820190508181035f830152613b618184613aed565b905092915050565b5f60a082019050613b7c5f830188613991565b8181036020830152613b8e8187613818565b9050613b9d6040830186613991565b613baa6060830185613991565b613bb76080830184613a1d565b9695505050505050565b5f80fd5b5f80fd5b7f4e487b71000000000000000000000000000000000000000000000000000000005f52604160045260245ffd5b613bff82613808565b810181811067ffffffffffffffff82111715613c1e57613c1d613bc9565b5b80604052505050565b5f613c306135d3565b9050613c3c8282613bf6565b919050565b5f67ffffffffffffffff821115613c5b57613c5a613bc9565b5b613c6482613808565b9050602081019050919050565b828183375f83830152505050565b5f613c91613c8c84613c41565b613c27565b905082815260208101848484011115613cad57613cac613bc5565b5b613cb8848285613c71565b509392505050565b5f82601f830112613cd457613cd3613bc1565b5b8135613ce4848260208601613c7f565b91505092915050565b5f805f60608486031215613d0457613d036135dc565b5b5f84013567ffffffffffffffff811115613d2157613d206135e0565b5b613d2d86828701613cc0565b935050602084013567ffffffffffffffff811115613d4e57613d4d6135e0565b5b613d5a86828701613cc0565b9250506040613d6b86828701613886565b9150509250925092565b613d7e8161372f565b8114613d88575f80fd5b50565b5f81359050613d9981613d75565b92915050565b5f8060408385031215613db557613db46135dc565b5b5f613dc285828601613886565b9250506020613dd385828601613d8b565b9150509250929050565b5f67ffffffffffffffff821115613df757613df6613bc9565b5b613e0082613808565b9050602081019050919050565b5f613e1f613e1a84613ddd565b613c27565b905082815260208101848484011115613e3b57613e3a613bc5565b5b613e46848285613c71565b509392505050565b5f82601f830112613e6257613e61613bc1565b5b8135613e72848260208601613e0d565b91505092915050565b5f805f8060808587031215613e9357613e926135dc565b5b5f613ea087828801613886565b9450506020613eb187828801613886565b9350506040613ec28782880161365d565b925050606085013567ffffffffffffffff811115613ee357613ee26135e0565b5b613eef87828801613e4e565b91505092959194509250565b5f8060408385031215613f1157613f106135dc565b5b5f613f1e8582860161365d565b9250506020613f2f85828601613886565b9150509250929050565b5f8060408385031215613f4f57613f4e6135dc565b5b5f613f5c85828601613886565b9250506020613f6d85828601613886565b9150509250929050565b5f805f60608486031215613f8e57613f8d6135dc565b5b5f84013567ffffffffffffffff811115613fab57613faa6135e0565b5b613fb786828701613cc0565b9350506020613fc88682870161365d565b9250506040613fd986828701613886565b9150509250925092565b7f4e6f74416e417070726f7665644f776e657200000000000000000000000000005f82015250565b5f6140176012836137d0565b915061402282613fe3565b602082019050919050565b5f6020820190508181035f8301526140448161400b565b9050919050565b7f4e6f7454686561737365744f776e6572000000000000000000000000000000005f82015250565b5f61407f6010836137d0565b915061408a8261404b565b602082019050919050565b5f6020820190508181035f8301526140ac81614073565b9050919050565b7f4e487b71000000000000000000000000000000000000000000000000000000005f52601160045260245ffd5b5f6140ea8261363e565b91505f82036140fc576140fb6140b3565b5b600182039050919050565b5f6141118261363e565b91507fffffffffffffffffffffffffffffffffffffffffffffffffffffffffffffffff8203614143576141426140b3565b5b600182019050919050565b7f4e487b71000000000000000000000000000000000000000000000000000000005f52602260045260245ffd5b5f600282049050600182168061419257607f821691505b6020821081036141a5576141a461414e565b5b50919050565b7f4552433732313a20617070726f76656420717565727920666f72206e6f6e65785f8201527f697374656e7420746f6b656e0000000000000000000000000000000000000000602082015250565b5f614205602c836137d0565b9150614210826141ab565b604082019050919050565b5f6020820190508181035f830152614232816141f9565b9050919050565b7f43757272656e744f776e6572417070726f76616c0000000000000000000000005f82015250565b5f61426d6014836137d0565b915061427882614239565b602082019050919050565b5f6020820190508181035f83015261429a81614261565b9050919050565b7f4e6f7454686541737365744f776e6572000000000000000000000000000000005f82015250565b5f6142d56010836137d0565b91506142e0826142a1565b602082019050919050565b5f6020820190508181035f830152614302816142c9565b9050919050565b5f60608201905061431c5f83018661379e565b6143296020830185613991565b614336604083018461379e565b949350505050565b7f4f6e6c79206469737472696275746f722063616e2063616c6c207468697300005f82015250565b5f614372601e836137d0565b915061437d8261433e565b602082019050919050565b5f6020820190508181035f83015261439f81614366565b9050919050565b5f6143b08261363e565b91506143bb8361363e565b92508282019050808211156143d3576143d26140b3565b5b92915050565b7f4f6e6c7920726567697374657265642075736572732063616e2063616c6c20745f8201527f6869730000000000000000000000000000000000000000000000000000000000602082015250565b5f6144336023836137d0565b915061443e826143d9565b604082019050919050565b5f6020820190508181035f83015261446081614427565b9050919050565b7f55736572206e6f742072656769737465726564000000000000000000000000005f82015250565b5f61449b6013836137d0565b91506144a682614467565b602082019050919050565b5f6020820190508181035f8301526144c88161448f565b9050919050565b7f496e76616c69642062616c616e636500000000000000000000000000000000005f82015250565b5f614503600f836137d0565b915061450e826144cf565b602082019050919050565b5f6020820190508181035f830152614530816144f7565b9050919050565b7f4f6e6c79206f776e65722063616e2063616c6c207468697300000000000000005f82015250565b5f61456b6018836137d0565b915061457682614537565b602082019050919050565b5f6020820190508181035f8301526145988161455f565b9050919050565b7f55736572206e6f7420666f756e640000000000000000000000000000000000005f82015250565b5f6145d3600e836137d0565b91506145de8261459f565b602082019050919050565b5f6020820190508181035f830152614600816145c7565b9050919050565b7f5573657220697320616c7265616479204469737472696275746f7200000000005f82015250565b5f61463b601b836137d0565b915061464682614607565b602082019050919050565b5f6020820190508181035f8301526146688161462f565b9050919050565b7f4e6f4173736574457869737473000000000000000000000000000000000000005f82015250565b5f6146a3600d836137d0565b91506146ae8261466f565b602082019050919050565b5f6020820190508181035f8301526146d081614697565b9050919050565b7f496e76616c696420696e70757420706172616d657465720000000000000000005f82015250565b5f61470b6017836137d0565b9150614716826146d7565b602082019050919050565b5f6020820190508181035f830152614738816146ff565b9050919050565b7f524543206e6f7420666f756e64000000000000000000000000000000000000005f82015250565b5f614773600d836137d0565b915061477e8261473f565b602082019050919050565b5f6020820190508181035f8301526147a081614767565b9050919050565b7f496e73756666696369656e742062616c616e63650000000000000000000000005f82015250565b5f6147db6014836137d0565b91506147e6826147a7565b602082019050919050565b5f6020820190508181035f830152614808816147cf565b9050919050565b7f4552433732313a2062616c616e636520717565727920666f7220746865207a655f8201527f726f206164647265737300000000000000000000000000000000000000000000602082015250565b5f614869602a836137d0565b91506148748261480f565b604082019050919050565b5f6020820190508181035f8301526148968161485d565b9050919050565b7f496e76616c696420696e70757420706172616d657465727300000000000000005f82015250565b5f6148d16018836137d0565b91506148dc8261489d565b602082019050919050565b5f6020820190508181035f8301526148fe816148c5565b9050919050565b7f5573657220616c726561647920726567697374657265640000000000000000005f82015250565b5f6149396017836137d0565b915061494482614905565b602082019050919050565b5f6020820190508181035f8301526149668161492d565b9050919050565b5f819050815f5260205f209050919050565b5f6020601f8301049050919050565b5f82821b905092915050565b5f600883026149c97fffffffffffffffffffffffffffffffffffffffffffffffffffffffffffffffff8261498e565b6149d3868361498e565b95508019841693508086168417925050509392505050565b5f819050919050565b5f614a0e614a09614a048461363e565b6149eb565b61363e565b9050919050565b5f819050919050565b614a27836149f4565b614a3b614a3382614a15565b84845461499a565b825550505050565b5f90565b614a4f614a43565b614a5a818484614a1e565b505050565b5b81811015614a7d57614a725f82614a47565b600181019050614a60565b5050565b601f821115614ac257614a938161496d565b614a9c8461497f565b81016020851015614aab578190505b614abf614ab78561497f565b830182614a5f565b50505b505050565b5f82821c905092915050565b5f614ae25f1984600802614ac7565b1980831691505092915050565b5f614afa8383614ad3565b9150826002028217905092915050565b614b13826137c6565b67ffffffffffffffff811115614b2c57614b2b613bc9565b5b614b36825461417b565b614b41828285614a81565b5f60209050601f831160018114614b72575f8415614b60578287015190505b614b6a8582614aef565b865550614bd1565b601f198416614b808661496d565b5f5b82811015614ba757848901518255600182019150602085019450602081019050614b82565b86831015614bc45784890151614bc0601f891682614ad3565b8355505b6001600288020188555050505b505050505050565b5f614be38261363e565b9150614bee8361363e565b9250828203905081811115614c0657614c056140b3565b5b92915050565b5f81905092915050565b5f614c20826137c6565b614c2a8185614c0c565b9350614c3a8185602086016137e0565b80840191505092915050565b5f614c518285614c16565b9150614c5d8284614c16565b91508190509392505050565b7f5573657220697320616c726561647920526567697374657265640000000000005f82015250565b5f614c9d601a836137d0565b9150614ca882614c69565b602082019050919050565b5f6020820190508181035f830152614cca81614c91565b9050919050565b7f4552433732313a206f70657261746f7220717565727920666f72206e6f6e65785f8201527f697374656e7420746f6b656e0000000000000000000000000000000000000000602082015250565b5f614d2b602c836137d0565b9150614d3682614cd1565b604082019050919050565b5f6020820190508181035f830152614d5881614d1f565b9050919050565b5f81519050919050565b5f82825260208201905092915050565b5f614d8382614d5f565b614d8d8185614d69565b9350614d9d8185602086016137e0565b614da681613808565b840191505092915050565b5f608082019050614dc45f83018761379e565b614dd1602083018661379e565b614dde6040830185613991565b8181036060830152614df08184614d79565b905095945050505050565b5f81519050614e09816136da565b92915050565b5f60208284031215614e2457614e236135dc565b5b5f614e3184828501614dfb565b91505092915050565b7f4e487b71000000000000000000000000000000000000000000000000000000005f52601260045260245ffd5b7f5a65726f416464726573734d696e6974696e67000000000000000000000000005f82015250565b5f614e9b6013836137d0565b9150614ea682614e67565b602082019050919050565b5f6020820190508181035f830152614ec881614e8f565b9050919050565b7f416c72656164794d696e746564000000000000000000000000000000000000005f82015250565b5f614f03600d836137d0565b9150614f0e82614ecf565b602082019050919050565b5f6020820190508181035f830152614f3081614ef7565b9050919050565b5f604082019050614f4a5f83018561379e565b614f576020830184613991565b939250505056fea26469706673582212205f6b64f7436eb8aef42372129fbc866dc5550e1f5a8c8090b8026c3c7d68381a64736f6c63430008140033",
  "immutableReferences": {},
  "source": "// SPDX-License-Identifier: UNLICENSED\r\npragma solidity >=0.5.0 <0.9.0;\r\n\r\nimport \"@openzeppelin/contracts/token/ERC721/ERC721.sol\";\r\n\r\ncontract RenewableEnergyToken is ERC721 {\r\n    \r\n    address public owner;\r\n    \r\n    struct User {\r\n        string id;\r\n        string name;\r\n        uint balance;\r\n        REC[] certificates;\r\n        bool isDistributor;\r\n        bool isRegistered;\r\n    }\r\n    \r\n    struct REC {\r\n        uint id;\r\n        string name;\r\n        uint quantity;\r\n        uint256 price;\r\n        Status status;\r\n    }\r\n\r\n    uint public recCount;\r\n    mapping(uint => REC) public recs;\r\n    mapping(uint => address) private recOwner;\r\n    mapping (address => uint256) private ownedAssetsCount;    \r\n    mapping (uint256 => address) public assetApprovals;\r\n\r\n    address[]  addressList;\r\n    \r\n    enum Status {Available, Sold}\r\n    \r\n    mapping(address => User) users;\r\n\r\n    //Events\r\n    //event Transfer(address indexed from, address indexed to, uint256 indexed tokenId);\r\n    //event Approval(address indexed owner, address indexed approved, uint256 indexed tokenId);\r\n\r\n    constructor() ERC721(\"RenewableEnergyToken\", \"RET\") {\r\n        owner = msg.sender;\r\n\t\taddressList.push(owner);\r\n    }\r\n\r\n    modifier onlyOwner() {\r\n        require(msg.sender == owner, \"Only owner can call this\");\r\n        _;\r\n    }\r\n\r\n    modifier onlyRegistered() {\r\n        require(msg.sender == owner || users[msg.sender].isRegistered, \"Only registered users can call this\");\r\n        _;\r\n    }\r\n\r\n    modifier onlyDistributor() {\r\n        require(msg.sender == owner || users[msg.sender].isDistributor, \"Only distributor can call this\");\r\n        _;\r\n    }\r\n\r\n\tfunction getUserRole(address user) public view returns (string memory) {\r\n\t\tif (user == owner) {\r\n\t\t\treturn \"owner\";\r\n\t\t} else if (users[user].isDistributor) {\r\n\t\t\treturn \"distributor\";\r\n\t\t} else if (users[user].isRegistered) {\r\n\t\t\treturn \"registered\";\r\n\t\t} else {\r\n\t\t\t User storage userObj = users[user];\r\n\t\t\tif (bytes(userObj.id).length > 0)\r\n\t\t\t\treturn \"not yet verified\";\r\n\t\t\telse \r\n\t\t\t\treturn \"none\";\r\n\t\t\t}\r\n\t}\r\n\r\n    //ERC721 methods\r\n\r\n\tfunction balanceOf() public view returns (uint256)  {\r\n        require(msg.sender != address(0), \"ERC721: balance query for the zero address\");\r\n\r\n        return ownedAssetsCount[msg.sender];\r\n    }\r\n    \r\n     function ownerOf(uint256 assetId) public view override returns (address) {\r\n         address owner_ = recOwner[assetId];\r\n         require(owner_ != address(0), \"NoAssetExists\");\r\n         return owner_;\r\n     }\r\n    \r\n\tfunction appreciate(uint256 assetId,uint256 value) public onlyDistributor{\r\n        recs[assetId].price = recs[assetId].price + value;\r\n    }\r\n    \r\n\tfunction depreciate(uint256 assetId,uint256 value) public onlyDistributor{\r\n        recs[assetId].price = recs[assetId].price - value;\r\n    }\r\n    \r\n    function transferFrom(address payable from, uint256 recId) public payable{\r\n        require(isApprovedOrOwner(msg.sender, recId), \"NotAnApprovedOwner\");\r\n        require(ownerOf(recId) == from, \"NotTheassetOwner\");\r\n        clearApproval(recId,getApproved(recId));\r\n        ownedAssetsCount[from]--;\r\n        ownedAssetsCount[msg.sender]++;\r\n        recOwner[recId] = msg.sender;\r\n\t\tfrom.transfer(msg.value);\r\n        emit Transfer(from, msg.sender, recId);\r\n    }\r\n\r\n    function approve(address to,uint256 assetId) public override {\r\n        address owner_ = ownerOf(assetId);\r\n        require(to != owner_, \"CurrentOwnerApproval\");\r\n        require(msg.sender == owner_,\"NotTheAssetOwner\");\r\n        assetApprovals[assetId] = to;\r\n        emit Approval(owner_, to, assetId);\r\n    }\r\n\r\n    function getApproved(uint256 assetId) public view override returns (address) {\r\n        require(exists(assetId), \"ERC721: approved query for nonexistent token\");\r\n        return assetApprovals[assetId];\r\n    }\r\n    \r\n\tfunction clearApproval(uint256 assetId,address approved) public {\r\n        if (assetApprovals[assetId]==approved){\r\n            assetApprovals[assetId] = address(0);\r\n        }\r\n    }\r\n\r\n    // Function used internally by other methods\r\n    function mint(address to, uint256 recId) internal {\r\n        require(to != address(0), \"ZeroAddressMiniting\");\r\n        require(!exists(recId), \"AlreadyMinted\");\r\n        recOwner[recId] = to;\r\n        ownedAssetsCount[to]++;\r\n        emit Transfer(address(0), to, recId);\r\n    }\r\n\r\n    function exists(uint256 assetId) internal view returns (bool) {\r\n        return recOwner[assetId] != address(0);\r\n    }\r\n\r\n    function isApprovedOrOwner(address spender, uint256 assetId) internal view returns (bool) {\r\n        require(exists(assetId), \"ERC721: operator query for nonexistent token\");\r\n        address owner_ = ownerOf(assetId);\r\n        return (spender == owner_ || getApproved(assetId) == spender);\r\n    }\r\n\r\n    //REC functions\r\n    function generateREC(string memory name, uint quantity, address sellerAddress) public onlyDistributor payable {\r\n        require(bytes(name).length > 0 && quantity > 0 && msg.value > 0 && sellerAddress!=address(0), \"Invalid input parameters\");\r\n\r\n        recs[recCount] =  REC(recCount, name, quantity, msg.value, Status.Available);\r\n        \r\n        mint(sellerAddress,recCount);\r\n        recCount = recCount+1;\r\n    }\r\n\r\n\tfunction getAddressList() public view returns (address[] memory) {\r\n        return addressList;\r\n    }\r\n\r\n\tfunction getCertificate(uint id) public view onlyRegistered returns (uint, string memory, uint, uint,address, Status) {\r\n        REC memory rec = recs[id];\r\n        return (id, rec.name, rec.quantity, rec.price, recOwner[id], rec.status);\r\n    }\r\n\r\n    function verifyREC(uint id) public view onlyRegistered returns (bool) {\r\n        require(id>=0, \"Invalid input parameter\");\r\n\r\n        REC storage rec = recs[id];\r\n        require(id<recCount, \"REC not found\");\r\n\r\n        require(address(this).balance >= rec.price, \"Insufficient balance\");\r\n        return true;\r\n    }\r\n\r\n    function approveDistributor(address userAddress) public onlyOwner {\r\n        User storage user = users[userAddress];\r\n        require(bytes(user.id).length > 0, \"User not found\");\r\n        require(!user.isDistributor, \"User is already Distributor\");\r\n\r\n        user.isDistributor = true;\r\n        user.isRegistered = true;\r\n    }\r\n\r\n    function approveUser(address userAddress) public onlyDistributor {\r\n        User storage user = users[userAddress];\r\n        require(bytes(user.id).length > 0, \"User not found\");\r\n        require(!user.isRegistered, \"User is already Registered\");\r\n\r\n        user.isRegistered = true;\r\n    }\r\n\r\n    function selfRegister(string memory id, string memory name, address userAddress) public {\r\n        require(bytes(id).length > 0 && bytes(name).length > 0, \"Invalid input parameters\");\r\n\r\n        User storage user = users[msg.sender];\r\n        require(bytes(user.id).length == 0, \"User already registered\");\r\n\r\n        user.id = id;\r\n        user.name = name;\r\n        user.balance = address(this).balance; \r\n        user.isDistributor = false;\r\n\t\tuser.isRegistered = false;\r\n        addressList.push((userAddress));\r\n    }\r\n\r\n    function topupBalance() public onlyRegistered payable {\r\n        User storage user = users[msg.sender];\r\n        require(bytes(user.id).length != 0, \"User not registered\");\r\n        require(msg.value >= 0, \"Invalid balance\");\r\n\r\n        user.balance += msg.value;\r\n    }\r\n}",
  "sourcePath": "C:\\Users\\rupsa\\OneDrive\\Desktop\\project\\contracts\\token.sol",
  "compiler": {
    "name": "solc",
    "version": "0.8.20+commit.a1b79de6.Emscripten.clang"
  },
  "schemaVersion": "3.4.16",
  "updatedAt": "2024-01-27T05:18:22.902Z",
  "devdoc": {
    "errors": {
      "ERC721IncorrectOwner(address,uint256,address)": [
        {
          "details": "Indicates an error related to the ownership over a particular token. Used in transfers.",
          "params": {
            "owner": "Address of the current owner of a token.",
            "sender": "Address whose tokens are being transferred.",
            "tokenId": "Identifier number of a token."
          }
        }
      ],
      "ERC721InsufficientApproval(address,uint256)": [
        {
          "details": "Indicates a failure with the `operator`s approval. Used in transfers.",
          "params": {
            "operator": "Address that may be allowed to operate on tokens without being their owner.",
            "tokenId": "Identifier number of a token."
          }
        }
      ],
      "ERC721InvalidApprover(address)": [
        {
          "details": "Indicates a failure with the `approver` of a token to be approved. Used in approvals.",
          "params": {
            "approver": "Address initiating an approval operation."
          }
        }
      ],
      "ERC721InvalidOperator(address)": [
        {
          "details": "Indicates a failure with the `operator` to be approved. Used in approvals.",
          "params": {
            "operator": "Address that may be allowed to operate on tokens without being their owner."
          }
        }
      ],
      "ERC721InvalidOwner(address)": [
        {
          "details": "Indicates that an address can't be an owner. For example, `address(0)` is a forbidden owner in EIP-20. Used in balance queries.",
          "params": {
            "owner": "Address of the current owner of a token."
          }
        }
      ],
      "ERC721InvalidReceiver(address)": [
        {
          "details": "Indicates a failure with the token `receiver`. Used in transfers.",
          "params": {
            "receiver": "Address to which tokens are being transferred."
          }
        }
      ],
      "ERC721InvalidSender(address)": [
        {
          "details": "Indicates a failure with the token `sender`. Used in transfers.",
          "params": {
            "sender": "Address whose tokens are being transferred."
          }
        }
      ],
      "ERC721NonexistentToken(uint256)": [
        {
          "details": "Indicates a `tokenId` whose `owner` is the zero address.",
          "params": {
            "tokenId": "Identifier number of a token."
          }
        }
      ]
    },
    "events": {
      "Approval(address,address,uint256)": {
        "details": "Emitted when `owner` enables `approved` to manage the `tokenId` token."
      },
      "ApprovalForAll(address,address,bool)": {
        "details": "Emitted when `owner` enables or disables (`approved`) `operator` to manage all of its assets."
      },
      "Transfer(address,address,uint256)": {
        "details": "Emitted when `tokenId` token is transferred from `from` to `to`."
      }
    },
    "kind": "dev",
    "methods": {
      "balanceOf(address)": {
        "details": "See {IERC721-balanceOf}."
      },
      "isApprovedForAll(address,address)": {
        "details": "See {IERC721-isApprovedForAll}."
      },
      "name()": {
        "details": "See {IERC721Metadata-name}."
      },
      "safeTransferFrom(address,address,uint256)": {
        "details": "See {IERC721-safeTransferFrom}."
      },
      "safeTransferFrom(address,address,uint256,bytes)": {
        "details": "See {IERC721-safeTransferFrom}."
      },
      "setApprovalForAll(address,bool)": {
        "details": "See {IERC721-setApprovalForAll}."
      },
      "supportsInterface(bytes4)": {
        "details": "See {IERC165-supportsInterface}."
      },
      "symbol()": {
        "details": "See {IERC721Metadata-symbol}."
      },
      "tokenURI(uint256)": {
        "details": "See {IERC721Metadata-tokenURI}."
      },
      "transferFrom(address,address,uint256)": {
        "details": "See {IERC721-transferFrom}."
      }
    },
    "version": 1
  },
  "userdoc": {
    "kind": "user",
    "methods": {},
    "version": 1
  }
}