{
  "contractName": "token",
  "abi": [
    {
      "inputs": [],
      "stateMutability": "nonpayable",
      "type": "constructor"
    },
    {
      "anonymous": false,
      "inputs": [
        {
          "indexed": true,
          "internalType": "address",
          "name": "owner",
          "type": "address"
        },
        {
          "indexed": true,
          "internalType": "address",
          "name": "approved",
          "type": "address"
        },
        {
          "indexed": true,
          "internalType": "uint256",
          "name": "tokenId",
          "type": "uint256"
        }
      ],
      "name": "Approval",
      "type": "event"
    },
    {
      "anonymous": false,
      "inputs": [
        {
          "indexed": true,
          "internalType": "address",
          "name": "owner",
          "type": "address"
        },
        {
          "indexed": true,
          "internalType": "address",
          "name": "operator",
          "type": "address"
        },
        {
          "indexed": false,
          "internalType": "bool",
          "name": "approved",
          "type": "bool"
        }
      ],
      "name": "ApprovalForAll",
      "type": "event"
    },
    {
      "anonymous": false,
      "inputs": [
        {
          "indexed": true,
          "internalType": "address",
          "name": "from",
          "type": "address"
        },
        {
          "indexed": true,
          "internalType": "address",
          "name": "to",
          "type": "address"
        },
        {
          "indexed": true,
          "internalType": "uint256",
          "name": "tokenId",
          "type": "uint256"
        }
      ],
      "name": "Transfer",
      "type": "event"
    },
    {
      "inputs": [
        {
          "internalType": "uint256",
          "name": "",
          "type": "uint256"
        }
      ],
      "name": "assetApprovals",
      "outputs": [
        {
          "internalType": "address",
          "name": "",
          "type": "address"
        }
      ],
      "stateMutability": "view",
      "type": "function",
      "constant": true
    },
    {
      "inputs": [
        {
          "internalType": "address",
          "name": "owner",
          "type": "address"
        },
        {
          "internalType": "address",
          "name": "operator",
          "type": "address"
        }
      ],
      "name": "isApprovedForAll",
      "outputs": [
        {
          "internalType": "bool",
          "name": "",
          "type": "bool"
        }
      ],
      "stateMutability": "view",
      "type": "function",
      "constant": true
    },
    {
      "inputs": [],
      "name": "name",
      "outputs": [
        {
          "internalType": "string",
          "name": "",
          "type": "string"
        }
      ],
      "stateMutability": "view",
      "type": "function",
      "constant": true
    },
    {
      "inputs": [],
      "name": "owner",
      "outputs": [
        {
          "internalType": "address",
          "name": "",
          "type": "address"
        }
      ],
      "stateMutability": "view",
      "type": "function",
      "constant": true
    },
    {
      "inputs": [],
      "name": "recCount",
      "outputs": [
        {
          "internalType": "uint256",
          "name": "",
          "type": "uint256"
        }
      ],
      "stateMutability": "view",
      "type": "function",
      "constant": true
    },
    {
      "inputs": [
        {
          "internalType": "uint256",
          "name": "",
          "type": "uint256"
        }
      ],
      "name": "recs",
      "outputs": [
        {
          "internalType": "uint256",
          "name": "id",
          "type": "uint256"
        },
        {
          "internalType": "string",
          "name": "name",
          "type": "string"
        },
        {
          "internalType": "uint256",
          "name": "quantity",
          "type": "uint256"
        },
        {
          "internalType": "uint256",
          "name": "price",
          "type": "uint256"
        },
        {
          "internalType": "enum token.Status",
          "name": "status",
          "type": "uint8"
        }
      ],
      "stateMutability": "view",
      "type": "function",
      "constant": true
    },
    {
      "inputs": [
        {
          "internalType": "address",
          "name": "from",
          "type": "address"
        },
        {
          "internalType": "address",
          "name": "to",
          "type": "address"
        },
        {
          "internalType": "uint256",
          "name": "tokenId",
          "type": "uint256"
        }
      ],
      "name": "safeTransferFrom",
      "outputs": [],
      "stateMutability": "nonpayable",
      "type": "function"
    },
    {
      "inputs": [
        {
          "internalType": "address",
          "name": "from",
          "type": "address"
        },
        {
          "internalType": "address",
          "name": "to",
          "type": "address"
        },
        {
          "internalType": "uint256",
          "name": "tokenId",
          "type": "uint256"
        },
        {
          "internalType": "bytes",
          "name": "data",
          "type": "bytes"
        }
      ],
      "name": "safeTransferFrom",
      "outputs": [],
      "stateMutability": "nonpayable",
      "type": "function"
    },
    {
      "inputs": [
        {
          "internalType": "address",
          "name": "operator",
          "type": "address"
        },
        {
          "internalType": "bool",
          "name": "approved",
          "type": "bool"
        }
      ],
      "name": "setApprovalForAll",
      "outputs": [],
      "stateMutability": "nonpayable",
      "type": "function"
    },
    {
      "inputs": [
        {
          "internalType": "bytes4",
          "name": "interfaceId",
          "type": "bytes4"
        }
      ],
      "name": "supportsInterface",
      "outputs": [
        {
          "internalType": "bool",
          "name": "",
          "type": "bool"
        }
      ],
      "stateMutability": "view",
      "type": "function",
      "constant": true
    },
    {
      "inputs": [],
      "name": "symbol",
      "outputs": [
        {
          "internalType": "string",
          "name": "",
          "type": "string"
        }
      ],
      "stateMutability": "view",
      "type": "function",
      "constant": true
    },
    {
      "inputs": [
        {
          "internalType": "uint256",
          "name": "tokenId",
          "type": "uint256"
        }
      ],
      "name": "tokenURI",
      "outputs": [
        {
          "internalType": "string",
          "name": "",
          "type": "string"
        }
      ],
      "stateMutability": "view",
      "type": "function",
      "constant": true
    },
    {
      "inputs": [
        {
          "internalType": "address",
          "name": "user",
          "type": "address"
        }
      ],
      "name": "getUserRole",
      "outputs": [
        {
          "internalType": "string",
          "name": "",
          "type": "string"
        }
      ],
      "stateMutability": "view",
      "type": "function",
      "constant": true
    },
    {
      "inputs": [
        {
          "internalType": "address",
          "name": "owner",
          "type": "address"
        }
      ],
      "name": "balanceOf",
      "outputs": [
        {
          "internalType": "uint256",
          "name": "",
          "type": "uint256"
        }
      ],
      "stateMutability": "view",
      "type": "function",
      "constant": true
    },
    {
      "inputs": [],
      "name": "balanceOf",
      "outputs": [
        {
          "internalType": "uint256",
          "name": "",
          "type": "uint256"
        }
      ],
      "stateMutability": "view",
      "type": "function",
      "constant": true
    },
    {
      "inputs": [
        {
          "internalType": "uint256",
          "name": "assetId",
          "type": "uint256"
        }
      ],
      "name": "ownerOf",
      "outputs": [
        {
          "internalType": "address",
          "name": "",
          "type": "address"
        }
      ],
      "stateMutability": "view",
      "type": "function",
      "constant": true
    },
    {
      "inputs": [
        {
          "internalType": "uint256",
          "name": "assetId",
          "type": "uint256"
        },
        {
          "internalType": "uint256",
          "name": "value",
          "type": "uint256"
        }
      ],
      "name": "appreciate",
      "outputs": [],
      "stateMutability": "nonpayable",
      "type": "function"
    },
    {
      "inputs": [
        {
          "internalType": "uint256",
          "name": "assetId",
          "type": "uint256"
        },
        {
          "internalType": "uint256",
          "name": "value",
          "type": "uint256"
        }
      ],
      "name": "depreciate",
      "outputs": [],
      "stateMutability": "nonpayable",
      "type": "function"
    },
    {
      "inputs": [
        {
          "internalType": "address payable",
          "name": "from",
          "type": "address"
        },
        {
          "internalType": "uint256",
          "name": "recId",
          "type": "uint256"
        }
      ],
      "name": "transferFrom",
      "outputs": [],
      "stateMutability": "payable",
      "type": "function",
      "payable": true
    },
    {
      "inputs": [
        {
          "internalType": "address",
          "name": "from",
          "type": "address"
        },
        {
          "internalType": "address",
          "name": "to",
          "type": "address"
        },
        {
          "internalType": "uint256",
          "name": "tokenId",
          "type": "uint256"
        }
      ],
      "name": "transferFrom",
      "outputs": [],
      "stateMutability": "nonpayable",
      "type": "function"
    },
    {
      "inputs": [
        {
          "internalType": "address",
          "name": "to",
          "type": "address"
        },
        {
          "internalType": "uint256",
          "name": "assetId",
          "type": "uint256"
        }
      ],
      "name": "approve",
      "outputs": [],
      "stateMutability": "nonpayable",
      "type": "function"
    },
    {
      "inputs": [
        {
          "internalType": "uint256",
          "name": "assetId",
          "type": "uint256"
        }
      ],
      "name": "getApproved",
      "outputs": [
        {
          "internalType": "address",
          "name": "",
          "type": "address"
        }
      ],
      "stateMutability": "view",
      "type": "function",
      "constant": true
    },
    {
      "inputs": [
        {
          "internalType": "uint256",
          "name": "assetId",
          "type": "uint256"
        },
        {
          "internalType": "address",
          "name": "approved",
          "type": "address"
        }
      ],
      "name": "clearApproval",
      "outputs": [],
      "stateMutability": "nonpayable",
      "type": "function"
    },
    {
      "inputs": [
        {
          "internalType": "string",
          "name": "name",
          "type": "string"
        },
        {
          "internalType": "uint256",
          "name": "quantity",
          "type": "uint256"
        },
        {
          "internalType": "address",
          "name": "sellerAddress",
          "type": "address"
        }
      ],
      "name": "generateREC",
      "outputs": [],
      "stateMutability": "payable",
      "type": "function",
      "payable": true
    },
    {
      "inputs": [],
      "name": "getAddressList",
      "outputs": [
        {
          "internalType": "address[]",
          "name": "",
          "type": "address[]"
        }
      ],
      "stateMutability": "view",
      "type": "function",
      "constant": true
    },
    {
      "inputs": [
        {
          "internalType": "uint256",
          "name": "id",
          "type": "uint256"
        }
      ],
      "name": "getCertificate",
      "outputs": [
        {
          "internalType": "uint256",
          "name": "",
          "type": "uint256"
        },
        {
          "internalType": "string",
          "name": "",
          "type": "string"
        },
        {
          "internalType": "uint256",
          "name": "",
          "type": "uint256"
        },
        {
          "internalType": "uint256",
          "name": "",
          "type": "uint256"
        },
        {
          "internalType": "address",
          "name": "",
          "type": "address"
        },
        {
          "internalType": "enum token.Status",
          "name": "",
          "type": "uint8"
        }
      ],
      "stateMutability": "view",
      "type": "function",
      "constant": true
    },
    {
      "inputs": [
        {
          "internalType": "uint256",
          "name": "id",
          "type": "uint256"
        }
      ],
      "name": "verifyREC",
      "outputs": [
        {
          "internalType": "bool",
          "name": "",
          "type": "bool"
        }
      ],
      "stateMutability": "view",
      "type": "function",
      "constant": true
    },
    {
      "inputs": [
        {
          "internalType": "address",
          "name": "userAddress",
          "type": "address"
        }
      ],
      "name": "approveDistributor",
      "outputs": [],
      "stateMutability": "nonpayable",
      "type": "function"
    },
    {
      "inputs": [
        {
          "internalType": "address",
          "name": "userAddress",
          "type": "address"
        }
      ],
      "name": "approveUser",
      "outputs": [],
      "stateMutability": "nonpayable",
      "type": "function"
    },
    {
      "inputs": [
        {
          "internalType": "string",
          "name": "id",
          "type": "string"
        },
        {
          "internalType": "string",
          "name": "name",
          "type": "string"
        },
        {
          "internalType": "address",
          "name": "userAddress",
          "type": "address"
        }
      ],
      "name": "selfRegister",
      "outputs": [],
      "stateMutability": "nonpayable",
      "type": "function"
    },
    {
      "inputs": [],
      "name": "topupBalance",
      "outputs": [],
      "stateMutability": "payable",
      "type": "function",
      "payable": true
    }
  ],
  "bytecode": "0x60806040523480156200001157600080fd5b506040518060400160405280601481526020017f52656e657761626c65456e65726779546f6b656e0000000000000000000000008152506040518060400160405280600381526020017f524554000000000000000000000000000000000000000000000000000000000081525081600090816200008f9190620003ea565b508060019081620000a19190620003ea565b50505033600660006101000a81548173ffffffffffffffffffffffffffffffffffffffff021916908373ffffffffffffffffffffffffffffffffffffffff160217905550600c600660009054906101000a900473ffffffffffffffffffffffffffffffffffffffff169080600181540180825580915050600190039060005260206000200160009091909190916101000a81548173ffffffffffffffffffffffffffffffffffffffff021916908373ffffffffffffffffffffffffffffffffffffffff160217905550620004d1565b600081519050919050565b7f4e487b7100000000000000000000000000000000000000000000000000000000600052604160045260246000fd5b7f4e487b7100000000000000000000000000000000000000000000000000000000600052602260045260246000fd5b60006002820490506001821680620001f257607f821691505b602082108103620002085762000207620001aa565b5b50919050565b60008190508160005260206000209050919050565b60006020601f8301049050919050565b600082821b905092915050565b600060088302620002727fffffffffffffffffffffffffffffffffffffffffffffffffffffffffffffffff8262000233565b6200027e868362000233565b95508019841693508086168417925050509392505050565b6000819050919050565b6000819050919050565b6000620002cb620002c5620002bf8462000296565b620002a0565b62000296565b9050919050565b6000819050919050565b620002e783620002aa565b620002ff620002f682620002d2565b84845462000240565b825550505050565b600090565b6200031662000307565b62000323818484620002dc565b505050565b5b818110156200034b576200033f6000826200030c565b60018101905062000329565b5050565b601f8211156200039a5762000364816200020e565b6200036f8462000223565b810160208510156200037f578190505b620003976200038e8562000223565b83018262000328565b50505b505050565b600082821c905092915050565b6000620003bf600019846008026200039f565b1980831691505092915050565b6000620003da8383620003ac565b9150826002028217905092915050565b620003f58262000170565b67ffffffffffffffff8111156200041157620004106200017b565b5b6200041d8254620001d9565b6200042a8282856200034f565b600060209050601f8311600181146200046257600084156200044d578287015190505b620004598582620003cc565b865550620004c9565b601f19841662000472866200020e565b60005b828110156200049c5784890151825560018201915060208501945060208101905062000475565b86831015620004bc5784890151620004b8601f891682620003ac565b8355505b6001600288020188555050505b505050505050565b61534c80620004e16000396000f3fe6080604052600436106101d85760003560e01c806370a08231116101025780639f980f9111610095578063d624fdb611610064578063d624fdb6146106e1578063daa5fe2d1461070a578063e985e9c514610733578063f2844dd514610770576101d8565b80639f980f9114610629578063a22cb46514610652578063b88d4fde1461067b578063c87b56dd146106a4576101d8565b806384acbb89116100d157806384acbb89146105695780638da5cb5b146105aa57806395084a41146105d557806395d89b41146105fe576101d8565b806370a082311461049957806371e06925146104d6578063722713f714610513578063811191301461053e576101d8565b8063278208511161017a578063467ee32111610149578063467ee321146103e7578063482aede5146103f157806351640fee1461041a5780636352211e1461045c576101d8565b8063278208511461032d5780632b34af511461036a57806334b1da131461039357806342842e0e146103be576101d8565b806306fdde03116101b657806306fdde0314610273578063081812fc1461029e578063095ea7b3146102db57806323b872dd14610304576101d8565b806301c6adc3146101dd57806301ffc9a7146101f95780630338577014610236575b600080fd5b6101f760048036038101906101f291906135fc565b61078c565b005b34801561020557600080fd5b50610220600480360381019061021b9190613694565b6109ff565b60405161022d91906136dc565b60405180910390f35b34801561024257600080fd5b5061025d600480360381019061025891906136f7565b610ae1565b60405161026a9190613745565b60405180910390f35b34801561027f57600080fd5b50610288610b14565b60405161029591906137f0565b60405180910390f35b3480156102aa57600080fd5b506102c560048036038101906102c091906136f7565b610ba6565b6040516102d29190613745565b60405180910390f35b3480156102e757600080fd5b5061030260048036038101906102fd919061383e565b610c2b565b005b34801561031057600080fd5b5061032b6004803603810190610326919061387e565b610dc6565b005b34801561033957600080fd5b50610354600480360381019061034f91906138d1565b610e26565b60405161036191906137f0565b60405180910390f35b34801561037657600080fd5b50610391600480360381019061038c91906138fe565b6110b7565b005b34801561039f57600080fd5b506103a86111de565b6040516103b5919061394d565b60405180910390f35b3480156103ca57600080fd5b506103e560048036038101906103e0919061387e565b6111e4565b005b6103ef611204565b005b3480156103fd57600080fd5b50610418600480360381019061041391906138d1565b6113e3565b005b34801561042657600080fd5b50610441600480360381019061043c91906136f7565b611599565b604051610453969594939291906139df565b60405180910390f35b34801561046857600080fd5b50610483600480360381019061047e91906136f7565b6117f6565b6040516104909190613745565b60405180910390f35b3480156104a557600080fd5b506104c060048036038101906104bb91906138d1565b6118a7565b6040516104cd919061394d565b60405180910390f35b3480156104e257600080fd5b506104fd60048036038101906104f891906136f7565b61195e565b60405161050a91906136dc565b60405180910390f35b34801561051f57600080fd5b50610528611b37565b604051610535919061394d565b60405180910390f35b34801561054a57600080fd5b50610553611bec565b6040516105609190613b05565b60405180910390f35b34801561057557600080fd5b50610590600480360381019061058b91906136f7565b611c7a565b6040516105a1959493929190613b27565b60405180910390f35b3480156105b657600080fd5b506105bf611d45565b6040516105cc9190613745565b60405180910390f35b3480156105e157600080fd5b506105fc60048036038101906105f79190613cb6565b611d6b565b005b34801561060a57600080fd5b50610613611f22565b60405161062091906137f0565b60405180910390f35b34801561063557600080fd5b50610650600480360381019061064b91906138fe565b611fb4565b005b34801561065e57600080fd5b5061067960048036038101906106749190613d6d565b6120db565b005b34801561068757600080fd5b506106a2600480360381019061069d9190613e4e565b6120f1565b005b3480156106b057600080fd5b506106cb60048036038101906106c691906136f7565b612153565b6040516106d891906137f0565b60405180910390f35b3480156106ed57600080fd5b50610708600480360381019061070391906138d1565b6121bb565b005b34801561071657600080fd5b50610731600480360381019061072c9190613ed1565b6123ab565b005b34801561073f57600080fd5b5061075a60048036038101906107559190613f11565b612469565b60405161076791906136dc565b60405180910390f35b61078a60048036038101906107859190613f51565b6124fd565b005b6107963382612757565b6107d5576040517f08c379a00000000000000000000000000000000000000000000000000000000081526004016107cc9061400c565b60405180910390fd5b8173ffffffffffffffffffffffffffffffffffffffff166107f5826117f6565b73ffffffffffffffffffffffffffffffffffffffff161461084b576040517f08c379a000000000000000000000000000000000000000000000000000000000815260040161084290614078565b60405180910390fd5b61085d8161085883610ba6565b6123ab565b600a60008373ffffffffffffffffffffffffffffffffffffffff1673ffffffffffffffffffffffffffffffffffffffff16815260200190815260200160002060008154809291906108ad906140c7565b9190505550600a60003373ffffffffffffffffffffffffffffffffffffffff1673ffffffffffffffffffffffffffffffffffffffff1681526020019081526020016000206000815480929190610902906140f0565b9190505550336009600083815260200190815260200160002060006101000a81548173ffffffffffffffffffffffffffffffffffffffff021916908373ffffffffffffffffffffffffffffffffffffffff1602179055508173ffffffffffffffffffffffffffffffffffffffff166108fc349081150290604051600060405180830381858888f1935050505015801561099f573d6000803e3d6000fd5b50803373ffffffffffffffffffffffffffffffffffffffff168373ffffffffffffffffffffffffffffffffffffffff167fddf252ad1be2c89b69c2b068fc378daa952ba7f163c4a11628f55a4df523b3ef60405160405180910390a45050565b60007f80ac58cd000000000000000000000000000000000000000000000000000000007bffffffffffffffffffffffffffffffffffffffffffffffffffffffff1916827bffffffffffffffffffffffffffffffffffffffffffffffffffffffff19161480610aca57507f5b5e139f000000000000000000000000000000000000000000000000000000007bffffffffffffffffffffffffffffffffffffffffffffffffffffffff1916827bffffffffffffffffffffffffffffffffffffffffffffffffffffffff1916145b80610ada5750610ad982612824565b5b9050919050565b600b6020528060005260406000206000915054906101000a900473ffffffffffffffffffffffffffffffffffffffff1681565b606060008054610b2390614167565b80601f0160208091040260200160405190810160405280929190818152602001828054610b4f90614167565b8015610b9c5780601f10610b7157610100808354040283529160200191610b9c565b820191906000526020600020905b815481529060010190602001808311610b7f57829003601f168201915b5050505050905090565b6000610bb18261288e565b610bf0576040517f08c379a0000000000000000000000000000000000000000000000000000000008152600401610be79061420a565b60405180910390fd5b600b600083815260200190815260200160002060009054906101000a900473ffffffffffffffffffffffffffffffffffffffff169050919050565b6000610c36826117f6565b90508073ffffffffffffffffffffffffffffffffffffffff168373ffffffffffffffffffffffffffffffffffffffff1603610ca6576040517f08c379a0000000000000000000000000000000000000000000000000000000008152600401610c9d90614276565b60405180910390fd5b8073ffffffffffffffffffffffffffffffffffffffff163373ffffffffffffffffffffffffffffffffffffffff1614610d14576040517f08c379a0000000000000000000000000000000000000000000000000000000008152600401610d0b906142e2565b60405180910390fd5b82600b600084815260200190815260200160002060006101000a81548173ffffffffffffffffffffffffffffffffffffffff021916908373ffffffffffffffffffffffffffffffffffffffff160217905550818373ffffffffffffffffffffffffffffffffffffffff168273ffffffffffffffffffffffffffffffffffffffff167f8c5be1e5ebec7d5bd14f71427d1e84f3dd0314c0f7b2291e5b200ac8c7c3b92560405160405180910390a4505050565b610dd7610dd16128fa565b82612902565b610e16576040517f08c379a0000000000000000000000000000000000000000000000000000000008152600401610e0d90614374565b60405180910390fd5b610e21838383612997565b505050565b6060600660009054906101000a900473ffffffffffffffffffffffffffffffffffffffff1673ffffffffffffffffffffffffffffffffffffffff168273ffffffffffffffffffffffffffffffffffffffff1603610eba576040518060400160405280600581526020017f6f776e657200000000000000000000000000000000000000000000000000000081525090506110b2565b600d60008373ffffffffffffffffffffffffffffffffffffffff1673ffffffffffffffffffffffffffffffffffffffff16815260200190815260200160002060040160009054906101000a900460ff1615610f4c576040518060400160405280600b81526020017f6469737472696275746f7200000000000000000000000000000000000000000081525090506110b2565b600d60008373ffffffffffffffffffffffffffffffffffffffff1673ffffffffffffffffffffffffffffffffffffffff16815260200190815260200160002060040160019054906101000a900460ff1615610fde576040518060400160405280600a81526020017f726567697374657265640000000000000000000000000000000000000000000081525090506110b2565b6000600d60008473ffffffffffffffffffffffffffffffffffffffff1673ffffffffffffffffffffffffffffffffffffffff1681526020019081526020016000209050600081600001805461103290614167565b90501115611078576040518060400160405280601081526020017f6e6f7420796574207665726966696564000000000000000000000000000000008152509150506110b2565b6040518060400160405280600481526020017f6e6f6e65000000000000000000000000000000000000000000000000000000008152509150505b919050565b600660009054906101000a900473ffffffffffffffffffffffffffffffffffffffff1673ffffffffffffffffffffffffffffffffffffffff163373ffffffffffffffffffffffffffffffffffffffff16148061115f5750600d60003373ffffffffffffffffffffffffffffffffffffffff1673ffffffffffffffffffffffffffffffffffffffff16815260200190815260200160002060040160009054906101000a900460ff165b61119e576040517f08c379a0000000000000000000000000000000000000000000000000000000008152600401611195906143e0565b60405180910390fd5b8060086000848152602001908152602001600020600301546111c09190614400565b60086000848152602001908152602001600020600301819055505050565b60075481565b6111ff838383604051806020016040528060008152506120f1565b505050565b600660009054906101000a900473ffffffffffffffffffffffffffffffffffffffff1673ffffffffffffffffffffffffffffffffffffffff163373ffffffffffffffffffffffffffffffffffffffff1614806112ac5750600d60003373ffffffffffffffffffffffffffffffffffffffff1673ffffffffffffffffffffffffffffffffffffffff16815260200190815260200160002060040160019054906101000a900460ff165b6112eb576040517f08c379a00000000000000000000000000000000000000000000000000000000081526004016112e2906144a6565b60405180910390fd5b6000600d60003373ffffffffffffffffffffffffffffffffffffffff1673ffffffffffffffffffffffffffffffffffffffff1681526020019081526020016000209050600081600001805461133f90614167565b905003611381576040517f08c379a000000000000000000000000000000000000000000000000000000000815260040161137890614512565b60405180910390fd5b60003410156113c5576040517f08c379a00000000000000000000000000000000000000000000000000000000081526004016113bc9061457e565b60405180910390fd5b348160020160008282546113d99190614400565b9250508190555050565b600660009054906101000a900473ffffffffffffffffffffffffffffffffffffffff1673ffffffffffffffffffffffffffffffffffffffff163373ffffffffffffffffffffffffffffffffffffffff1614611473576040517f08c379a000000000000000000000000000000000000000000000000000000000815260040161146a906145ea565b60405180910390fd5b6000600d60008373ffffffffffffffffffffffffffffffffffffffff1673ffffffffffffffffffffffffffffffffffffffff168152602001908152602001600020905060008160000180546114c790614167565b905011611509576040517f08c379a000000000000000000000000000000000000000000000000000000000815260040161150090614656565b60405180910390fd5b8060040160009054906101000a900460ff161561155b576040517f08c379a0000000000000000000000000000000000000000000000000000000008152600401611552906146c2565b60405180910390fd5b60018160040160006101000a81548160ff02191690831515021790555060018160040160016101000a81548160ff0219169083151502179055505050565b60006060600080600080600660009054906101000a900473ffffffffffffffffffffffffffffffffffffffff1673ffffffffffffffffffffffffffffffffffffffff163373ffffffffffffffffffffffffffffffffffffffff16148061164b5750600d60003373ffffffffffffffffffffffffffffffffffffffff1673ffffffffffffffffffffffffffffffffffffffff16815260200190815260200160002060040160019054906101000a900460ff165b61168a576040517f08c379a0000000000000000000000000000000000000000000000000000000008152600401611681906144a6565b60405180910390fd5b6000600860008981526020019081526020016000206040518060a0016040529081600082015481526020016001820180546116c490614167565b80601f01602080910402602001604051908101604052809291908181526020018280546116f090614167565b801561173d5780601f106117125761010080835404028352916020019161173d565b820191906000526020600020905b81548152906001019060200180831161172057829003601f168201915b5050505050815260200160028201548152602001600382015481526020016004820160009054906101000a900460ff16600181111561177f5761177e613968565b5b600181111561179157611790613968565b5b81525050905087816020015182604001518360600151600960008d815260200190815260200160002060009054906101000a900473ffffffffffffffffffffffffffffffffffffffff1685608001519650965096509650965096505091939550919395565b6000806009600084815260200190815260200160002060009054906101000a900473ffffffffffffffffffffffffffffffffffffffff169050600073ffffffffffffffffffffffffffffffffffffffff168173ffffffffffffffffffffffffffffffffffffffff160361189e576040517f08c379a00000000000000000000000000000000000000000000000000000000081526004016118959061472e565b60405180910390fd5b80915050919050565b60008073ffffffffffffffffffffffffffffffffffffffff168273ffffffffffffffffffffffffffffffffffffffff1603611917576040517f08c379a000000000000000000000000000000000000000000000000000000000815260040161190e906147c0565b60405180910390fd5b600360008373ffffffffffffffffffffffffffffffffffffffff1673ffffffffffffffffffffffffffffffffffffffff168152602001908152602001600020549050919050565b6000600660009054906101000a900473ffffffffffffffffffffffffffffffffffffffff1673ffffffffffffffffffffffffffffffffffffffff163373ffffffffffffffffffffffffffffffffffffffff161480611a085750600d60003373ffffffffffffffffffffffffffffffffffffffff1673ffffffffffffffffffffffffffffffffffffffff16815260200190815260200160002060040160019054906101000a900460ff165b611a47576040517f08c379a0000000000000000000000000000000000000000000000000000000008152600401611a3e906144a6565b60405180910390fd5b6000821015611a8b576040517f08c379a0000000000000000000000000000000000000000000000000000000008152600401611a829061482c565b60405180910390fd5b60006008600084815260200190815260200160002090506007548310611ae6576040517f08c379a0000000000000000000000000000000000000000000000000000000008152600401611add90614898565b60405180910390fd5b8060030154471015611b2d576040517f08c379a0000000000000000000000000000000000000000000000000000000008152600401611b2490614904565b60405180910390fd5b6001915050919050565b60008073ffffffffffffffffffffffffffffffffffffffff163373ffffffffffffffffffffffffffffffffffffffff1603611ba7576040517f08c379a0000000000000000000000000000000000000000000000000000000008152600401611b9e90614996565b60405180910390fd5b600a60003373ffffffffffffffffffffffffffffffffffffffff1673ffffffffffffffffffffffffffffffffffffffff16815260200190815260200160002054905090565b6060600c805480602002602001604051908101604052809291908181526020018280548015611c7057602002820191906000526020600020905b8160009054906101000a900473ffffffffffffffffffffffffffffffffffffffff1673ffffffffffffffffffffffffffffffffffffffff1681526020019060010190808311611c26575b5050505050905090565b6008602052806000526040600020600091509050806000015490806001018054611ca390614167565b80601f0160208091040260200160405190810160405280929190818152602001828054611ccf90614167565b8015611d1c5780601f10611cf157610100808354040283529160200191611d1c565b820191906000526020600020905b815481529060010190602001808311611cff57829003601f168201915b5050505050908060020154908060030154908060040160009054906101000a900460ff16905085565b600660009054906101000a900473ffffffffffffffffffffffffffffffffffffffff1681565b60008351118015611d7d575060008251115b611dbc576040517f08c379a0000000000000000000000000000000000000000000000000000000008152600401611db390614a02565b60405180910390fd5b6000600d60003373ffffffffffffffffffffffffffffffffffffffff1673ffffffffffffffffffffffffffffffffffffffff16815260200190815260200160002090506000816000018054611e1090614167565b905014611e52576040517f08c379a0000000000000000000000000000000000000000000000000000000008152600401611e4990614a6e565b60405180910390fd5b83816000019081611e639190614c3a565b5082816001019081611e759190614c3a565b5047816002018190555060008160040160006101000a81548160ff02191690831515021790555060008160040160016101000a81548160ff021916908315150217905550600c829080600181540180825580915050600190039060005260206000200160009091909190916101000a81548173ffffffffffffffffffffffffffffffffffffffff021916908373ffffffffffffffffffffffffffffffffffffffff16021790555050505050565b606060018054611f3190614167565b80601f0160208091040260200160405190810160405280929190818152602001828054611f5d90614167565b8015611faa5780601f10611f7f57610100808354040283529160200191611faa565b820191906000526020600020905b815481529060010190602001808311611f8d57829003601f168201915b5050505050905090565b600660009054906101000a900473ffffffffffffffffffffffffffffffffffffffff1673ffffffffffffffffffffffffffffffffffffffff163373ffffffffffffffffffffffffffffffffffffffff16148061205c5750600d60003373ffffffffffffffffffffffffffffffffffffffff1673ffffffffffffffffffffffffffffffffffffffff16815260200190815260200160002060040160009054906101000a900460ff165b61209b576040517f08c379a0000000000000000000000000000000000000000000000000000000008152600401612092906143e0565b60405180910390fd5b8060086000848152602001908152602001600020600301546120bd9190614d0c565b60086000848152602001908152602001600020600301819055505050565b6120ed6120e66128fa565b8383612c90565b5050565b6121026120fc6128fa565b83612902565b612141576040517f08c379a000000000000000000000000000000000000000000000000000000000815260040161213890614374565b60405180910390fd5b61214d84848484612dfc565b50505050565b606061215e82612e58565b6000612168612ea3565b9050600081511161218857604051806020016040528060008152506121b3565b8061219284612eba565b6040516020016121a3929190614d7c565b6040516020818303038152906040525b915050919050565b600660009054906101000a900473ffffffffffffffffffffffffffffffffffffffff1673ffffffffffffffffffffffffffffffffffffffff163373ffffffffffffffffffffffffffffffffffffffff1614806122635750600d60003373ffffffffffffffffffffffffffffffffffffffff1673ffffffffffffffffffffffffffffffffffffffff16815260200190815260200160002060040160009054906101000a900460ff165b6122a2576040517f08c379a0000000000000000000000000000000000000000000000000000000008152600401612299906143e0565b60405180910390fd5b6000600d60008373ffffffffffffffffffffffffffffffffffffffff1673ffffffffffffffffffffffffffffffffffffffff168152602001908152602001600020905060008160000180546122f690614167565b905011612338576040517f08c379a000000000000000000000000000000000000000000000000000000000815260040161232f90614656565b60405180910390fd5b8060040160019054906101000a900460ff161561238a576040517f08c379a000000000000000000000000000000000000000000000000000000000815260040161238190614dec565b60405180910390fd5b60018160040160016101000a81548160ff0219169083151502179055505050565b8073ffffffffffffffffffffffffffffffffffffffff16600b600084815260200190815260200160002060009054906101000a900473ffffffffffffffffffffffffffffffffffffffff1673ffffffffffffffffffffffffffffffffffffffff1603612465576000600b600084815260200190815260200160002060006101000a81548173ffffffffffffffffffffffffffffffffffffffff021916908373ffffffffffffffffffffffffffffffffffffffff1602179055505b5050565b6000600560008473ffffffffffffffffffffffffffffffffffffffff1673ffffffffffffffffffffffffffffffffffffffff16815260200190815260200160002060008373ffffffffffffffffffffffffffffffffffffffff1673ffffffffffffffffffffffffffffffffffffffff16815260200190815260200160002060009054906101000a900460ff16905092915050565b600660009054906101000a900473ffffffffffffffffffffffffffffffffffffffff1673ffffffffffffffffffffffffffffffffffffffff163373ffffffffffffffffffffffffffffffffffffffff1614806125a55750600d60003373ffffffffffffffffffffffffffffffffffffffff1673ffffffffffffffffffffffffffffffffffffffff16815260200190815260200160002060040160009054906101000a900460ff165b6125e4576040517f08c379a00000000000000000000000000000000000000000000000000000000081526004016125db906143e0565b60405180910390fd5b600083511180156125f55750600082115b80156126015750600034115b801561263a5750600073ffffffffffffffffffffffffffffffffffffffff168173ffffffffffffffffffffffffffffffffffffffff1614155b612679576040517f08c379a000000000000000000000000000000000000000000000000000000000815260040161267090614a02565b60405180910390fd5b6040518060a001604052806007548152602001848152602001838152602001348152602001600060018111156126b2576126b1613968565b5b8152506008600060075481526020019081526020016000206000820151816000015560208201518160010190816126e99190614c3a565b50604082015181600201556060820151816003015560808201518160040160006101000a81548160ff0219169083600181111561272957612728613968565b5b021790555090505061273d81600754612f88565b600160075461274c9190614400565b600781905550505050565b60006127628261288e565b6127a1576040517f08c379a000000000000000000000000000000000000000000000000000000000815260040161279890614e7e565b60405180910390fd5b60006127ac836117f6565b90508073ffffffffffffffffffffffffffffffffffffffff168473ffffffffffffffffffffffffffffffffffffffff16148061281b57508373ffffffffffffffffffffffffffffffffffffffff1661280384610ba6565b73ffffffffffffffffffffffffffffffffffffffff16145b91505092915050565b60007f01ffc9a7000000000000000000000000000000000000000000000000000000007bffffffffffffffffffffffffffffffffffffffffffffffffffffffff1916827bffffffffffffffffffffffffffffffffffffffffffffffffffffffff1916149050919050565b60008073ffffffffffffffffffffffffffffffffffffffff166009600084815260200190815260200160002060009054906101000a900473ffffffffffffffffffffffffffffffffffffffff1673ffffffffffffffffffffffffffffffffffffffff1614159050919050565b600033905090565b60008061290e83613147565b90508073ffffffffffffffffffffffffffffffffffffffff168473ffffffffffffffffffffffffffffffffffffffff161480612950575061294f8185612469565b5b8061298e57508373ffffffffffffffffffffffffffffffffffffffff1661297684610ba6565b73ffffffffffffffffffffffffffffffffffffffff16145b91505092915050565b8273ffffffffffffffffffffffffffffffffffffffff166129b782613147565b73ffffffffffffffffffffffffffffffffffffffff1614612a0d576040517f08c379a0000000000000000000000000000000000000000000000000000000008152600401612a0490614f10565b60405180910390fd5b600073ffffffffffffffffffffffffffffffffffffffff168273ffffffffffffffffffffffffffffffffffffffff1603612a7c576040517f08c379a0000000000000000000000000000000000000000000000000000000008152600401612a7390614fa2565b60405180910390fd5b612a8983838360016131cd565b8273ffffffffffffffffffffffffffffffffffffffff16612aa982613147565b73ffffffffffffffffffffffffffffffffffffffff1614612aff576040517f08c379a0000000000000000000000000000000000000000000000000000000008152600401612af690614f10565b60405180910390fd5b6004600082815260200190815260200160002060006101000a81549073ffffffffffffffffffffffffffffffffffffffff02191690556001600360008573ffffffffffffffffffffffffffffffffffffffff1673ffffffffffffffffffffffffffffffffffffffff168152602001908152602001600020600082825403925050819055506001600360008473ffffffffffffffffffffffffffffffffffffffff1673ffffffffffffffffffffffffffffffffffffffff16815260200190815260200160002060008282540192505081905550816002600083815260200190815260200160002060006101000a81548173ffffffffffffffffffffffffffffffffffffffff021916908373ffffffffffffffffffffffffffffffffffffffff160217905550808273ffffffffffffffffffffffffffffffffffffffff168473ffffffffffffffffffffffffffffffffffffffff167fddf252ad1be2c89b69c2b068fc378daa952ba7f163c4a11628f55a4df523b3ef60405160405180910390a4612c8b83838360016131d3565b505050565b8173ffffffffffffffffffffffffffffffffffffffff168373ffffffffffffffffffffffffffffffffffffffff1603612cfe576040517f08c379a0000000000000000000000000000000000000000000000000000000008152600401612cf59061500e565b60405180910390fd5b80600560008573ffffffffffffffffffffffffffffffffffffffff1673ffffffffffffffffffffffffffffffffffffffff16815260200190815260200160002060008473ffffffffffffffffffffffffffffffffffffffff1673ffffffffffffffffffffffffffffffffffffffff16815260200190815260200160002060006101000a81548160ff0219169083151502179055508173ffffffffffffffffffffffffffffffffffffffff168373ffffffffffffffffffffffffffffffffffffffff167f17307eab39ab6107e8899845ad3d59bd9653f200f220920489ca2b5937696c3183604051612def91906136dc565b60405180910390a3505050565b612e07848484612997565b612e13848484846131d9565b612e52576040517f08c379a0000000000000000000000000000000000000000000000000000000008152600401612e49906150a0565b60405180910390fd5b50505050565b612e6181613360565b612ea0576040517f08c379a0000000000000000000000000000000000000000000000000000000008152600401612e979061510c565b60405180910390fd5b50565b606060405180602001604052806000815250905090565b606060006001612ec9846133a1565b01905060008167ffffffffffffffff811115612ee857612ee7613b8b565b5b6040519080825280601f01601f191660200182016040528015612f1a5781602001600182028036833780820191505090505b509050600082602001820190505b600115612f7d578080600190039150507f3031323334353637383961626364656600000000000000000000000000000000600a86061a8153600a8581612f7157612f7061512c565b5b04945060008503612f28575b819350505050919050565b600073ffffffffffffffffffffffffffffffffffffffff168273ffffffffffffffffffffffffffffffffffffffff1603612ff7576040517f08c379a0000000000000000000000000000000000000000000000000000000008152600401612fee906151a7565b60405180910390fd5b6130008161288e565b15613040576040517f08c379a000000000000000000000000000000000000000000000000000000000815260040161303790615213565b60405180910390fd5b816009600083815260200190815260200160002060006101000a81548173ffffffffffffffffffffffffffffffffffffffff021916908373ffffffffffffffffffffffffffffffffffffffff160217905550600a60008373ffffffffffffffffffffffffffffffffffffffff1673ffffffffffffffffffffffffffffffffffffffff16815260200190815260200160002060008154809291906130e2906140f0565b9190505550808273ffffffffffffffffffffffffffffffffffffffff16600073ffffffffffffffffffffffffffffffffffffffff167fddf252ad1be2c89b69c2b068fc378daa952ba7f163c4a11628f55a4df523b3ef60405160405180910390a45050565b600080613153836134f4565b9050600073ffffffffffffffffffffffffffffffffffffffff168173ffffffffffffffffffffffffffffffffffffffff16036131c4576040517f08c379a00000000000000000000000000000000000000000000000000000000081526004016131bb9061510c565b60405180910390fd5b80915050919050565b50505050565b50505050565b60006131fa8473ffffffffffffffffffffffffffffffffffffffff16613531565b15613353578373ffffffffffffffffffffffffffffffffffffffff1663150b7a026132236128fa565b8786866040518563ffffffff1660e01b81526004016132459493929190615288565b6020604051808303816000875af192505050801561328157506040513d601f19601f8201168201806040525081019061327e91906152e9565b60015b613303573d80600081146132b1576040519150601f19603f3d011682016040523d82523d6000602084013e6132b6565b606091505b5060008151036132fb576040517f08c379a00000000000000000000000000000000000000000000000000000000081526004016132f2906150a0565b60405180910390fd5b805181602001fd5b63150b7a0260e01b7bffffffffffffffffffffffffffffffffffffffffffffffffffffffff1916817bffffffffffffffffffffffffffffffffffffffffffffffffffffffff191614915050613358565b600190505b949350505050565b60008073ffffffffffffffffffffffffffffffffffffffff16613382836134f4565b73ffffffffffffffffffffffffffffffffffffffff1614159050919050565b600080600090507a184f03e93ff9f4daa797ed6e38ed64bf6a1f01000000000000000083106133ff577a184f03e93ff9f4daa797ed6e38ed64bf6a1f01000000000000000083816133f5576133f461512c565b5b0492506040810190505b6d04ee2d6d415b85acef8100000000831061343c576d04ee2d6d415b85acef810000000083816134325761343161512c565b5b0492506020810190505b662386f26fc10000831061346b57662386f26fc1000083816134615761346061512c565b5b0492506010810190505b6305f5e1008310613494576305f5e100838161348a5761348961512c565b5b0492506008810190505b61271083106134b95761271083816134af576134ae61512c565b5b0492506004810190505b606483106134dc57606483816134d2576134d161512c565b5b0492506002810190505b600a83106134eb576001810190505b80915050919050565b60006002600083815260200190815260200160002060009054906101000a900473ffffffffffffffffffffffffffffffffffffffff169050919050565b6000808273ffffffffffffffffffffffffffffffffffffffff163b119050919050565b6000604051905090565b600080fd5b600080fd5b600073ffffffffffffffffffffffffffffffffffffffff82169050919050565b600061359382613568565b9050919050565b6135a381613588565b81146135ae57600080fd5b50565b6000813590506135c08161359a565b92915050565b6000819050919050565b6135d9816135c6565b81146135e457600080fd5b50565b6000813590506135f6816135d0565b92915050565b600080604083850312156136135761361261355e565b5b6000613621858286016135b1565b9250506020613632858286016135e7565b9150509250929050565b60007fffffffff0000000000000000000000000000000000000000000000000000000082169050919050565b6136718161363c565b811461367c57600080fd5b50565b60008135905061368e81613668565b92915050565b6000602082840312156136aa576136a961355e565b5b60006136b88482850161367f565b91505092915050565b60008115159050919050565b6136d6816136c1565b82525050565b60006020820190506136f160008301846136cd565b92915050565b60006020828403121561370d5761370c61355e565b5b600061371b848285016135e7565b91505092915050565b600061372f82613568565b9050919050565b61373f81613724565b82525050565b600060208201905061375a6000830184613736565b92915050565b600081519050919050565b600082825260208201905092915050565b60005b8381101561379a57808201518184015260208101905061377f565b60008484015250505050565b6000601f19601f8301169050919050565b60006137c282613760565b6137cc818561376b565b93506137dc81856020860161377c565b6137e5816137a6565b840191505092915050565b6000602082019050818103600083015261380a81846137b7565b905092915050565b61381b81613724565b811461382657600080fd5b50565b60008135905061383881613812565b92915050565b600080604083850312156138555761385461355e565b5b600061386385828601613829565b9250506020613874858286016135e7565b9150509250929050565b6000806000606084860312156138975761389661355e565b5b60006138a586828701613829565b93505060206138b686828701613829565b92505060406138c7868287016135e7565b9150509250925092565b6000602082840312156138e7576138e661355e565b5b60006138f584828501613829565b91505092915050565b600080604083850312156139155761391461355e565b5b6000613923858286016135e7565b9250506020613934858286016135e7565b9150509250929050565b613947816135c6565b82525050565b6000602082019050613962600083018461393e565b92915050565b7f4e487b7100000000000000000000000000000000000000000000000000000000600052602160045260246000fd5b600281106139a8576139a7613968565b5b50565b60008190506139b982613997565b919050565b60006139c9826139ab565b9050919050565b6139d9816139be565b82525050565b600060c0820190506139f4600083018961393e565b8181036020830152613a0681886137b7565b9050613a15604083018761393e565b613a22606083018661393e565b613a2f6080830185613736565b613a3c60a08301846139d0565b979650505050505050565b600081519050919050565b600082825260208201905092915050565b6000819050602082019050919050565b613a7c81613724565b82525050565b6000613a8e8383613a73565b60208301905092915050565b6000602082019050919050565b6000613ab282613a47565b613abc8185613a52565b9350613ac783613a63565b8060005b83811015613af8578151613adf8882613a82565b9750613aea83613a9a565b925050600181019050613acb565b5085935050505092915050565b60006020820190508181036000830152613b1f8184613aa7565b905092915050565b600060a082019050613b3c600083018861393e565b8181036020830152613b4e81876137b7565b9050613b5d604083018661393e565b613b6a606083018561393e565b613b7760808301846139d0565b9695505050505050565b600080fd5b600080fd5b7f4e487b7100000000000000000000000000000000000000000000000000000000600052604160045260246000fd5b613bc3826137a6565b810181811067ffffffffffffffff82111715613be257613be1613b8b565b5b80604052505050565b6000613bf5613554565b9050613c018282613bba565b919050565b600067ffffffffffffffff821115613c2157613c20613b8b565b5b613c2a826137a6565b9050602081019050919050565b82818337600083830152505050565b6000613c59613c5484613c06565b613beb565b905082815260208101848484011115613c7557613c74613b86565b5b613c80848285613c37565b509392505050565b600082601f830112613c9d57613c9c613b81565b5b8135613cad848260208601613c46565b91505092915050565b600080600060608486031215613ccf57613cce61355e565b5b600084013567ffffffffffffffff811115613ced57613cec613563565b5b613cf986828701613c88565b935050602084013567ffffffffffffffff811115613d1a57613d19613563565b5b613d2686828701613c88565b9250506040613d3786828701613829565b9150509250925092565b613d4a816136c1565b8114613d5557600080fd5b50565b600081359050613d6781613d41565b92915050565b60008060408385031215613d8457613d8361355e565b5b6000613d9285828601613829565b9250506020613da385828601613d58565b9150509250929050565b600067ffffffffffffffff821115613dc857613dc7613b8b565b5b613dd1826137a6565b9050602081019050919050565b6000613df1613dec84613dad565b613beb565b905082815260208101848484011115613e0d57613e0c613b86565b5b613e18848285613c37565b509392505050565b600082601f830112613e3557613e34613b81565b5b8135613e45848260208601613dde565b91505092915050565b60008060008060808587031215613e6857613e6761355e565b5b6000613e7687828801613829565b9450506020613e8787828801613829565b9350506040613e98878288016135e7565b925050606085013567ffffffffffffffff811115613eb957613eb8613563565b5b613ec587828801613e20565b91505092959194509250565b60008060408385031215613ee857613ee761355e565b5b6000613ef6858286016135e7565b9250506020613f0785828601613829565b9150509250929050565b60008060408385031215613f2857613f2761355e565b5b6000613f3685828601613829565b9250506020613f4785828601613829565b9150509250929050565b600080600060608486031215613f6a57613f6961355e565b5b600084013567ffffffffffffffff811115613f8857613f87613563565b5b613f9486828701613c88565b9350506020613fa5868287016135e7565b9250506040613fb686828701613829565b9150509250925092565b7f4e6f74416e417070726f7665644f776e65720000000000000000000000000000600082015250565b6000613ff660128361376b565b915061400182613fc0565b602082019050919050565b6000602082019050818103600083015261402581613fe9565b9050919050565b7f4e6f7454686561737365744f776e657200000000000000000000000000000000600082015250565b600061406260108361376b565b915061406d8261402c565b602082019050919050565b6000602082019050818103600083015261409181614055565b9050919050565b7f4e487b7100000000000000000000000000000000000000000000000000000000600052601160045260246000fd5b60006140d2826135c6565b9150600082036140e5576140e4614098565b5b600182039050919050565b60006140fb826135c6565b91507fffffffffffffffffffffffffffffffffffffffffffffffffffffffffffffffff820361412d5761412c614098565b5b600182019050919050565b7f4e487b7100000000000000000000000000000000000000000000000000000000600052602260045260246000fd5b6000600282049050600182168061417f57607f821691505b60208210810361419257614191614138565b5b50919050565b7f4552433732313a20617070726f76656420717565727920666f72206e6f6e657860008201527f697374656e7420746f6b656e0000000000000000000000000000000000000000602082015250565b60006141f4602c8361376b565b91506141ff82614198565b604082019050919050565b60006020820190508181036000830152614223816141e7565b9050919050565b7f43757272656e744f776e6572417070726f76616c000000000000000000000000600082015250565b600061426060148361376b565b915061426b8261422a565b602082019050919050565b6000602082019050818103600083015261428f81614253565b9050919050565b7f4e6f7454686541737365744f776e657200000000000000000000000000000000600082015250565b60006142cc60108361376b565b91506142d782614296565b602082019050919050565b600060208201905081810360008301526142fb816142bf565b9050919050565b7f4552433732313a2063616c6c6572206973206e6f7420746f6b656e206f776e6560008201527f72206f7220617070726f76656400000000000000000000000000000000000000602082015250565b600061435e602d8361376b565b915061436982614302565b604082019050919050565b6000602082019050818103600083015261438d81614351565b9050919050565b7f4f6e6c79206469737472696275746f722063616e2063616c6c20746869730000600082015250565b60006143ca601e8361376b565b91506143d582614394565b602082019050919050565b600060208201905081810360008301526143f9816143bd565b9050919050565b600061440b826135c6565b9150614416836135c6565b925082820190508082111561442e5761442d614098565b5b92915050565b7f4f6e6c7920726567697374657265642075736572732063616e2063616c6c207460008201527f6869730000000000000000000000000000000000000000000000000000000000602082015250565b600061449060238361376b565b915061449b82614434565b604082019050919050565b600060208201905081810360008301526144bf81614483565b9050919050565b7f55736572206e6f74207265676973746572656400000000000000000000000000600082015250565b60006144fc60138361376b565b9150614507826144c6565b602082019050919050565b6000602082019050818103600083015261452b816144ef565b9050919050565b7f496e76616c69642062616c616e63650000000000000000000000000000000000600082015250565b6000614568600f8361376b565b915061457382614532565b602082019050919050565b600060208201905081810360008301526145978161455b565b9050919050565b7f4f6e6c79206f776e65722063616e2063616c6c20746869730000000000000000600082015250565b60006145d460188361376b565b91506145df8261459e565b602082019050919050565b60006020820190508181036000830152614603816145c7565b9050919050565b7f55736572206e6f7420666f756e64000000000000000000000000000000000000600082015250565b6000614640600e8361376b565b915061464b8261460a565b602082019050919050565b6000602082019050818103600083015261466f81614633565b9050919050565b7f5573657220697320616c7265616479204469737472696275746f720000000000600082015250565b60006146ac601b8361376b565b91506146b782614676565b602082019050919050565b600060208201905081810360008301526146db8161469f565b9050919050565b7f4e6f417373657445786973747300000000000000000000000000000000000000600082015250565b6000614718600d8361376b565b9150614723826146e2565b602082019050919050565b600060208201905081810360008301526147478161470b565b9050919050565b7f4552433732313a2061646472657373207a65726f206973206e6f74206120766160008201527f6c6964206f776e65720000000000000000000000000000000000000000000000602082015250565b60006147aa60298361376b565b91506147b58261474e565b604082019050919050565b600060208201905081810360008301526147d98161479d565b9050919050565b7f496e76616c696420696e70757420706172616d65746572000000000000000000600082015250565b600061481660178361376b565b9150614821826147e0565b602082019050919050565b6000602082019050818103600083015261484581614809565b9050919050565b7f524543206e6f7420666f756e6400000000000000000000000000000000000000600082015250565b6000614882600d8361376b565b915061488d8261484c565b602082019050919050565b600060208201905081810360008301526148b181614875565b9050919050565b7f496e73756666696369656e742062616c616e6365000000000000000000000000600082015250565b60006148ee60148361376b565b91506148f9826148b8565b602082019050919050565b6000602082019050818103600083015261491d816148e1565b9050919050565b7f4552433732313a2062616c616e636520717565727920666f7220746865207a6560008201527f726f206164647265737300000000000000000000000000000000000000000000602082015250565b6000614980602a8361376b565b915061498b82614924565b604082019050919050565b600060208201905081810360008301526149af81614973565b9050919050565b7f496e76616c696420696e70757420706172616d65746572730000000000000000600082015250565b60006149ec60188361376b565b91506149f7826149b6565b602082019050919050565b60006020820190508181036000830152614a1b816149df565b9050919050565b7f5573657220616c72656164792072656769737465726564000000000000000000600082015250565b6000614a5860178361376b565b9150614a6382614a22565b602082019050919050565b60006020820190508181036000830152614a8781614a4b565b9050919050565b60008190508160005260206000209050919050565b60006020601f8301049050919050565b600082821b905092915050565b600060088302614af07fffffffffffffffffffffffffffffffffffffffffffffffffffffffffffffffff82614ab3565b614afa8683614ab3565b95508019841693508086168417925050509392505050565b6000819050919050565b6000614b37614b32614b2d846135c6565b614b12565b6135c6565b9050919050565b6000819050919050565b614b5183614b1c565b614b65614b5d82614b3e565b848454614ac0565b825550505050565b600090565b614b7a614b6d565b614b85818484614b48565b505050565b5b81811015614ba957614b9e600082614b72565b600181019050614b8b565b5050565b601f821115614bee57614bbf81614a8e565b614bc884614aa3565b81016020851015614bd7578190505b614beb614be385614aa3565b830182614b8a565b50505b505050565b600082821c905092915050565b6000614c1160001984600802614bf3565b1980831691505092915050565b6000614c2a8383614c00565b9150826002028217905092915050565b614c4382613760565b67ffffffffffffffff811115614c5c57614c5b613b8b565b5b614c668254614167565b614c71828285614bad565b600060209050601f831160018114614ca45760008415614c92578287015190505b614c9c8582614c1e565b865550614d04565b601f198416614cb286614a8e565b60005b82811015614cda57848901518255600182019150602085019450602081019050614cb5565b86831015614cf75784890151614cf3601f891682614c00565b8355505b6001600288020188555050505b505050505050565b6000614d17826135c6565b9150614d22836135c6565b9250828203905081811115614d3a57614d39614098565b5b92915050565b600081905092915050565b6000614d5682613760565b614d608185614d40565b9350614d7081856020860161377c565b80840191505092915050565b6000614d888285614d4b565b9150614d948284614d4b565b91508190509392505050565b7f5573657220697320616c72656164792052656769737465726564000000000000600082015250565b6000614dd6601a8361376b565b9150614de182614da0565b602082019050919050565b60006020820190508181036000830152614e0581614dc9565b9050919050565b7f4552433732313a206f70657261746f7220717565727920666f72206e6f6e657860008201527f697374656e7420746f6b656e0000000000000000000000000000000000000000602082015250565b6000614e68602c8361376b565b9150614e7382614e0c565b604082019050919050565b60006020820190508181036000830152614e9781614e5b565b9050919050565b7f4552433732313a207472616e736665722066726f6d20696e636f72726563742060008201527f6f776e6572000000000000000000000000000000000000000000000000000000602082015250565b6000614efa60258361376b565b9150614f0582614e9e565b604082019050919050565b60006020820190508181036000830152614f2981614eed565b9050919050565b7f4552433732313a207472616e7366657220746f20746865207a65726f2061646460008201527f7265737300000000000000000000000000000000000000000000000000000000602082015250565b6000614f8c60248361376b565b9150614f9782614f30565b604082019050919050565b60006020820190508181036000830152614fbb81614f7f565b9050919050565b7f4552433732313a20617070726f766520746f2063616c6c657200000000000000600082015250565b6000614ff860198361376b565b915061500382614fc2565b602082019050919050565b6000602082019050818103600083015261502781614feb565b9050919050565b7f4552433732313a207472616e7366657220746f206e6f6e20455243373231526560008201527f63656976657220696d706c656d656e7465720000000000000000000000000000602082015250565b600061508a60328361376b565b91506150958261502e565b604082019050919050565b600060208201905081810360008301526150b98161507d565b9050919050565b7f4552433732313a20696e76616c696420746f6b656e2049440000000000000000600082015250565b60006150f660188361376b565b9150615101826150c0565b602082019050919050565b60006020820190508181036000830152615125816150e9565b9050919050565b7f4e487b7100000000000000000000000000000000000000000000000000000000600052601260045260246000fd5b7f5a65726f416464726573734d696e6974696e6700000000000000000000000000600082015250565b600061519160138361376b565b915061519c8261515b565b602082019050919050565b600060208201905081810360008301526151c081615184565b9050919050565b7f416c72656164794d696e74656400000000000000000000000000000000000000600082015250565b60006151fd600d8361376b565b9150615208826151c7565b602082019050919050565b6000602082019050818103600083015261522c816151f0565b9050919050565b600081519050919050565b600082825260208201905092915050565b600061525a82615233565b615264818561523e565b935061527481856020860161377c565b61527d816137a6565b840191505092915050565b600060808201905061529d6000830187613736565b6152aa6020830186613736565b6152b7604083018561393e565b81810360608301526152c9818461524f565b905095945050505050565b6000815190506152e381613668565b92915050565b6000602082840312156152ff576152fe61355e565b5b600061530d848285016152d4565b9150509291505056fea2646970667358221220fe30ac313a1a453977d03661ff78be3ac6d036cde6685e99ad94bd54a91998e964736f6c63430008130033",
  "immutableReferences": {},
  "source": "// SPDX-License-Identifier: UNLICENSED\r\npragma solidity >=0.5.0 <0.9.0;\r\n\r\nimport \"@openzeppelin/contracts/token/ERC721/ERC721.sol\";\r\n\r\ncontract token is ERC721 {\r\n    \r\n    address public owner;\r\n    \r\n    struct User {\r\n        string id;\r\n        string name;\r\n        uint balance;\r\n        REC[] certificates;\r\n        bool isDistributor;\r\n        bool isRegistered;\r\n    }\r\n    \r\n    struct REC {\r\n        uint id;\r\n        string name;\r\n        uint quantity;\r\n        uint256 price;\r\n        Status status;\r\n    }\r\n\r\n    uint public recCount;\r\n    mapping(uint => REC) public recs;\r\n    mapping(uint => address) private recOwner;\r\n    mapping (address => uint256) private ownedAssetsCount;    \r\n    mapping (uint256 => address) public assetApprovals;\r\n\r\n    address[]  addressList;\r\n    \r\n    enum Status {Available, Sold}\r\n    \r\n    mapping(address => User) users;\r\n\r\n    //Events\r\n    //event Transfer(address indexed from, address indexed to, uint256 indexed tokenId);\r\n    //event Approval(address indexed owner, address indexed approved, uint256 indexed tokenId);\r\n\r\n    constructor() ERC721(\"RenewableEnergyToken\", \"RET\") {\r\n        owner = msg.sender;\r\n\t\taddressList.push(owner);\r\n    }\r\n\r\n    modifier onlyOwner() {\r\n        require(msg.sender == owner, \"Only owner can call this\");\r\n        _;\r\n    }\r\n\r\n    modifier onlyRegistered() {\r\n        require(msg.sender == owner || users[msg.sender].isRegistered, \"Only registered users can call this\");\r\n        _;\r\n    }\r\n\r\n    modifier onlyDistributor() {\r\n        require(msg.sender == owner || users[msg.sender].isDistributor, \"Only distributor can call this\");\r\n        _;\r\n    }\r\n\r\n\tfunction getUserRole(address user) public view returns (string memory) {\r\n\t\tif (user == owner) {\r\n\t\t\treturn \"owner\";\r\n\t\t} else if (users[user].isDistributor) {\r\n\t\t\treturn \"distributor\";\r\n\t\t} else if (users[user].isRegistered) {\r\n\t\t\treturn \"registered\";\r\n\t\t} else {\r\n\t\t\t User storage userObj = users[user];\r\n\t\t\tif (bytes(userObj.id).length > 0)\r\n\t\t\t\treturn \"not yet verified\";\r\n\t\t\telse \r\n\t\t\t\treturn \"none\";\r\n\t\t\t}\r\n\t}\r\n\r\n    //ERC721 methods\r\n\r\n\tfunction balanceOf() public view returns (uint256)  {\r\n        require(msg.sender != address(0), \"ERC721: balance query for the zero address\");\r\n\r\n        return ownedAssetsCount[msg.sender];\r\n    }\r\n    \r\n     function ownerOf(uint256 assetId) public view override returns (address) {\r\n         address owner_ = recOwner[assetId];\r\n         require(owner_ != address(0), \"NoAssetExists\");\r\n         return owner_;\r\n     }\r\n    \r\n\tfunction appreciate(uint256 assetId,uint256 value) public onlyDistributor{\r\n        recs[assetId].price = recs[assetId].price + value;\r\n    }\r\n    \r\n\tfunction depreciate(uint256 assetId,uint256 value) public onlyDistributor{\r\n        recs[assetId].price = recs[assetId].price - value;\r\n    }\r\n    \r\n    function transferFrom(address payable from, uint256 recId) public payable{\r\n        require(isApprovedOrOwner(msg.sender, recId), \"NotAnApprovedOwner\");\r\n        require(ownerOf(recId) == from, \"NotTheassetOwner\");\r\n        clearApproval(recId,getApproved(recId));\r\n        ownedAssetsCount[from]--;\r\n        ownedAssetsCount[msg.sender]++;\r\n        recOwner[recId] = msg.sender;\r\n\t\tfrom.transfer(msg.value);\r\n        emit Transfer(from, msg.sender, recId);\r\n    }\r\n\r\n    function approve(address to,uint256 assetId) public override {\r\n        address owner_ = ownerOf(assetId);\r\n        require(to != owner_, \"CurrentOwnerApproval\");\r\n        require(msg.sender == owner_,\"NotTheAssetOwner\");\r\n        assetApprovals[assetId] = to;\r\n        emit Approval(owner_, to, assetId);\r\n    }\r\n\r\n    function getApproved(uint256 assetId) public view override returns (address) {\r\n        require(exists(assetId), \"ERC721: approved query for nonexistent token\");\r\n        return assetApprovals[assetId];\r\n    }\r\n    \r\n\tfunction clearApproval(uint256 assetId,address approved) public {\r\n        if (assetApprovals[assetId]==approved){\r\n            assetApprovals[assetId] = address(0);\r\n        }\r\n    }\r\n\r\n    // Function used internally by other methods\r\n    function mint(address to, uint256 recId) internal {\r\n        require(to != address(0), \"ZeroAddressMiniting\");\r\n        require(!exists(recId), \"AlreadyMinted\");\r\n        recOwner[recId] = to;\r\n        ownedAssetsCount[to]++;\r\n        emit Transfer(address(0), to, recId);\r\n    }\r\n\r\n    function exists(uint256 assetId) internal view returns (bool) {\r\n        return recOwner[assetId] != address(0);\r\n    }\r\n\r\n    function isApprovedOrOwner(address spender, uint256 assetId) internal view returns (bool) {\r\n        require(exists(assetId), \"ERC721: operator query for nonexistent token\");\r\n        address owner_ = ownerOf(assetId);\r\n        return (spender == owner_ || getApproved(assetId) == spender);\r\n    }\r\n\r\n    //REC functions\r\n    function generateREC(string memory name, uint quantity, address sellerAddress) public onlyDistributor payable {\r\n        require(bytes(name).length > 0 && quantity > 0 && msg.value > 0 && sellerAddress!=address(0), \"Invalid input parameters\");\r\n\r\n        recs[recCount] =  REC(recCount, name, quantity, msg.value, Status.Available);\r\n        \r\n        mint(sellerAddress,recCount);\r\n        recCount = recCount+1;\r\n    }\r\n\r\n\tfunction getAddressList() public view returns (address[] memory) {\r\n        return addressList;\r\n    }\r\n\r\n\tfunction getCertificate(uint id) public view onlyRegistered returns (uint, string memory, uint, uint,address, Status) {\r\n        REC memory rec = recs[id];\r\n        return (id, rec.name, rec.quantity, rec.price, recOwner[id], rec.status);\r\n    }\r\n\r\n    function verifyREC(uint id) public view onlyRegistered returns (bool) {\r\n        require(id>=0, \"Invalid input parameter\");\r\n\r\n        REC storage rec = recs[id];\r\n        require(id<recCount, \"REC not found\");\r\n\r\n        require(address(this).balance >= rec.price, \"Insufficient balance\");\r\n        return true;\r\n    }\r\n   \r\n\r\n\r\n\r\n    function approveDistributor(address userAddress) public onlyOwner {\r\n        User storage user = users[userAddress];\r\n        require(bytes(user.id).length > 0, \"User not found\");\r\n        require(!user.isDistributor, \"User is already Distributor\");\r\n\r\n        user.isDistributor = true;\r\n        user.isRegistered = true;\r\n    }\r\n\r\n    function approveUser(address userAddress) public onlyDistributor {\r\n        User storage user = users[userAddress];\r\n        require(bytes(user.id).length > 0, \"User not found\");\r\n        require(!user.isRegistered, \"User is already Registered\");\r\n\r\n        user.isRegistered = true;\r\n    }\r\n\r\n    function selfRegister(string memory id, string memory name, address userAddress) public {\r\n        require(bytes(id).length > 0 && bytes(name).length > 0, \"Invalid input parameters\");\r\n\r\n        User storage user = users[msg.sender];\r\n        require(bytes(user.id).length == 0, \"User already registered\");\r\n\r\n        user.id = id;\r\n        user.name = name;\r\n        user.balance = address(this).balance; \r\n        user.isDistributor = false;\r\n\t\tuser.isRegistered = false;\r\n        addressList.push((userAddress));\r\n    }\r\n\r\n    function topupBalance() public onlyRegistered payable {\r\n        User storage user = users[msg.sender];\r\n        require(bytes(user.id).length != 0, \"User not registered\");\r\n        require(msg.value >= 0, \"Invalid balance\");\r\n\r\n        user.balance += msg.value;\r\n    }\r\n}",
  "sourcePath": "C:\\Users\\rupsa\\OneDrive\\Desktop\\project\\contracts\\token.sol",
  "compiler": {
    "name": "solc",
    "version": "0.8.19+commit.7dd6d404.Emscripten.clang"
  },
  "schemaVersion": "3.4.16",
  "updatedAt": "2024-01-30T14:33:02.098Z",
  "networkType": "ethereum",
  "devdoc": {
    "events": {
      "Approval(address,address,uint256)": {
        "details": "Emitted when `owner` enables `approved` to manage the `tokenId` token."
      },
      "ApprovalForAll(address,address,bool)": {
        "details": "Emitted when `owner` enables or disables (`approved`) `operator` to manage all of its assets."
      },
      "Transfer(address,address,uint256)": {
        "details": "Emitted when `tokenId` token is transferred from `from` to `to`."
      }
    },
    "kind": "dev",
    "methods": {
      "balanceOf(address)": {
        "details": "See {IERC721-balanceOf}."
      },
      "isApprovedForAll(address,address)": {
        "details": "See {IERC721-isApprovedForAll}."
      },
      "name()": {
        "details": "See {IERC721Metadata-name}."
      },
      "safeTransferFrom(address,address,uint256)": {
        "details": "See {IERC721-safeTransferFrom}."
      },
      "safeTransferFrom(address,address,uint256,bytes)": {
        "details": "See {IERC721-safeTransferFrom}."
      },
      "setApprovalForAll(address,bool)": {
        "details": "See {IERC721-setApprovalForAll}."
      },
      "supportsInterface(bytes4)": {
        "details": "See {IERC165-supportsInterface}."
      },
      "symbol()": {
        "details": "See {IERC721Metadata-symbol}."
      },
      "tokenURI(uint256)": {
        "details": "See {IERC721Metadata-tokenURI}."
      },
      "transferFrom(address,address,uint256)": {
        "details": "See {IERC721-transferFrom}."
      }
    },
    "version": 1
  },
  "userdoc": {
    "kind": "user",
    "methods": {},
    "version": 1
  }
}